{
  "_format": "hh-sol-artifact-1",
  "contractName": "AsyncRedemptionController",
  "sourceName": "contracts/redemption/AsyncRedemptionController.sol",
  "abi": [
    {
      "inputs": [
        {
          "internalType": "address",
          "name": "admin",
          "type": "address"
        }
      ],
      "stateMutability": "nonpayable",
      "type": "constructor"
    },
    {
      "inputs": [],
      "name": "AccessControlBadConfirmation",
      "type": "error"
    },
    {
      "inputs": [
        {
          "internalType": "address",
          "name": "account",
          "type": "address"
        },
        {
          "internalType": "bytes32",
          "name": "neededRole",
          "type": "bytes32"
        }
      ],
      "name": "AccessControlUnauthorizedAccount",
      "type": "error"
    },
    {
      "inputs": [],
      "name": "ReentrancyGuardReentrantCall",
      "type": "error"
    },
    {
      "anonymous": false,
      "inputs": [
        {
          "indexed": true,
          "internalType": "bytes32",
          "name": "requestId",
          "type": "bytes32"
        },
        {
          "indexed": false,
          "internalType": "uint256",
          "name": "settlementValue",
          "type": "uint256"
        }
      ],
      "name": "RedemptionApproved",
      "type": "event"
    },
    {
      "anonymous": false,
      "inputs": [
        {
          "indexed": true,
          "internalType": "bytes32",
          "name": "requestId",
          "type": "bytes32"
        },
        {
          "indexed": false,
          "internalType": "string",
          "name": "reason",
          "type": "string"
        }
      ],
      "name": "RedemptionCancelled",
      "type": "event"
    },
    {
      "anonymous": false,
      "inputs": [
        {
          "indexed": true,
          "internalType": "bytes32",
          "name": "requestId",
          "type": "bytes32"
        },
        {
          "indexed": true,
          "internalType": "address",
          "name": "investor",
          "type": "address"
        },
        {
          "indexed": true,
          "internalType": "address",
          "name": "token",
          "type": "address"
        },
        {
          "indexed": false,
          "internalType": "uint256",
          "name": "amount",
          "type": "uint256"
        },
        {
          "indexed": false,
          "internalType": "uint256",
          "name": "timestamp",
          "type": "uint256"
        }
      ],
      "name": "RedemptionRequested",
      "type": "event"
    },
    {
      "anonymous": false,
      "inputs": [
        {
          "indexed": true,
          "internalType": "bytes32",
          "name": "requestId",
          "type": "bytes32"
        },
        {
          "indexed": false,
          "internalType": "uint256",
          "name": "actualValue",
          "type": "uint256"
        }
      ],
      "name": "RedemptionSettled",
      "type": "event"
    },
    {
      "anonymous": false,
      "inputs": [
        {
          "indexed": true,
          "internalType": "bytes32",
          "name": "role",
          "type": "bytes32"
        },
        {
          "indexed": true,
          "internalType": "bytes32",
          "name": "previousAdminRole",
          "type": "bytes32"
        },
        {
          "indexed": true,
          "internalType": "bytes32",
          "name": "newAdminRole",
          "type": "bytes32"
        }
      ],
      "name": "RoleAdminChanged",
      "type": "event"
    },
    {
      "anonymous": false,
      "inputs": [
        {
          "indexed": true,
          "internalType": "bytes32",
          "name": "role",
          "type": "bytes32"
        },
        {
          "indexed": true,
          "internalType": "address",
          "name": "account",
          "type": "address"
        },
        {
          "indexed": true,
          "internalType": "address",
          "name": "sender",
          "type": "address"
        }
      ],
      "name": "RoleGranted",
      "type": "event"
    },
    {
      "anonymous": false,
      "inputs": [
        {
          "indexed": true,
          "internalType": "bytes32",
          "name": "role",
          "type": "bytes32"
        },
        {
          "indexed": true,
          "internalType": "address",
          "name": "account",
          "type": "address"
        },
        {
          "indexed": true,
          "internalType": "address",
          "name": "sender",
          "type": "address"
        }
      ],
      "name": "RoleRevoked",
      "type": "event"
    },
    {
      "inputs": [],
      "name": "DEFAULT_ADMIN_ROLE",
      "outputs": [
        {
          "internalType": "bytes32",
          "name": "",
          "type": "bytes32"
        }
      ],
      "stateMutability": "view",
      "type": "function"
    },
    {
      "inputs": [],
      "name": "OPERATOR_ROLE",
      "outputs": [
        {
          "internalType": "bytes32",
          "name": "",
          "type": "bytes32"
        }
      ],
      "stateMutability": "view",
      "type": "function"
    },
    {
      "inputs": [],
      "name": "SETTLEMENT_PERIOD",
      "outputs": [
        {
          "internalType": "uint256",
          "name": "",
          "type": "uint256"
        }
      ],
      "stateMutability": "view",
      "type": "function"
    },
    {
      "inputs": [
        {
          "internalType": "bytes32",
          "name": "requestId",
          "type": "bytes32"
        },
        {
          "internalType": "uint256",
          "name": "settlementValue",
          "type": "uint256"
        },
        {
          "internalType": "bytes32",
          "name": "proofHash",
          "type": "bytes32"
        }
      ],
      "name": "approveRedemption",
      "outputs": [],
      "stateMutability": "nonpayable",
      "type": "function"
    },
    {
      "inputs": [
        {
          "internalType": "bytes32",
          "name": "requestId",
          "type": "bytes32"
        },
        {
          "internalType": "string",
          "name": "reason",
          "type": "string"
        }
      ],
      "name": "cancelRedemption",
      "outputs": [],
      "stateMutability": "nonpayable",
      "type": "function"
    },
    {
      "inputs": [
        {
          "internalType": "address",
          "name": "investor",
          "type": "address"
        }
      ],
      "name": "getInvestorRequests",
      "outputs": [
        {
          "internalType": "bytes32[]",
          "name": "",
          "type": "bytes32[]"
        }
      ],
      "stateMutability": "view",
      "type": "function"
    },
    {
      "inputs": [
        {
          "internalType": "bytes32",
          "name": "requestId",
          "type": "bytes32"
        }
      ],
      "name": "getRedemptionRequest",
      "outputs": [
        {
          "components": [
            {
              "internalType": "address",
              "name": "investor",
              "type": "address"
            },
            {
              "internalType": "address",
              "name": "token",
              "type": "address"
            },
            {
              "internalType": "uint256",
              "name": "tokenAmount",
              "type": "uint256"
            },
            {
              "internalType": "uint256",
              "name": "estimatedValue",
              "type": "uint256"
            },
            {
              "internalType": "uint256",
              "name": "requestTime",
              "type": "uint256"
            },
            {
              "internalType": "uint256",
              "name": "settlementTime",
              "type": "uint256"
            },
            {
              "internalType": "enum AsyncRedemptionController.RedemptionStatus",
              "name": "status",
              "type": "uint8"
            },
            {
              "internalType": "bytes32",
              "name": "proofHash",
              "type": "bytes32"
            }
          ],
          "internalType": "struct AsyncRedemptionController.RedemptionRequest",
          "name": "",
          "type": "tuple"
        }
      ],
      "stateMutability": "view",
      "type": "function"
    },
    {
      "inputs": [
        {
          "internalType": "bytes32",
          "name": "role",
          "type": "bytes32"
        }
      ],
      "name": "getRoleAdmin",
      "outputs": [
        {
          "internalType": "bytes32",
          "name": "",
          "type": "bytes32"
        }
      ],
      "stateMutability": "view",
      "type": "function"
    },
    {
      "inputs": [
        {
          "internalType": "bytes32",
          "name": "role",
          "type": "bytes32"
        },
        {
          "internalType": "address",
          "name": "account",
          "type": "address"
        }
      ],
      "name": "grantRole",
      "outputs": [],
      "stateMutability": "nonpayable",
      "type": "function"
    },
    {
      "inputs": [
        {
          "internalType": "bytes32",
          "name": "role",
          "type": "bytes32"
        },
        {
          "internalType": "address",
          "name": "account",
          "type": "address"
        }
      ],
      "name": "hasRole",
      "outputs": [
        {
          "internalType": "bool",
          "name": "",
          "type": "bool"
        }
      ],
      "stateMutability": "view",
      "type": "function"
    },
    {
      "inputs": [
        {
          "internalType": "address",
          "name": "",
          "type": "address"
        },
        {
          "internalType": "uint256",
          "name": "",
          "type": "uint256"
        }
      ],
      "name": "investorRequests",
      "outputs": [
        {
          "internalType": "bytes32",
          "name": "",
          "type": "bytes32"
        }
      ],
      "stateMutability": "view",
      "type": "function"
    },
    {
      "inputs": [
        {
          "internalType": "address",
          "name": "",
          "type": "address"
        }
      ],
      "name": "pendingRedemptions",
      "outputs": [
        {
          "internalType": "uint256",
          "name": "",
          "type": "uint256"
        }
      ],
      "stateMutability": "view",
      "type": "function"
    },
    {
      "inputs": [
        {
          "internalType": "bytes32",
          "name": "",
          "type": "bytes32"
        }
      ],
      "name": "redemptionRequests",
      "outputs": [
        {
          "internalType": "address",
          "name": "investor",
          "type": "address"
        },
        {
          "internalType": "address",
          "name": "token",
          "type": "address"
        },
        {
          "internalType": "uint256",
          "name": "tokenAmount",
          "type": "uint256"
        },
        {
          "internalType": "uint256",
          "name": "estimatedValue",
          "type": "uint256"
        },
        {
          "internalType": "uint256",
          "name": "requestTime",
          "type": "uint256"
        },
        {
          "internalType": "uint256",
          "name": "settlementTime",
          "type": "uint256"
        },
        {
          "internalType": "enum AsyncRedemptionController.RedemptionStatus",
          "name": "status",
          "type": "uint8"
        },
        {
          "internalType": "bytes32",
          "name": "proofHash",
          "type": "bytes32"
        }
      ],
      "stateMutability": "view",
      "type": "function"
    },
    {
      "inputs": [
        {
          "internalType": "bytes32",
          "name": "role",
          "type": "bytes32"
        },
        {
          "internalType": "address",
          "name": "callerConfirmation",
          "type": "address"
        }
      ],
      "name": "renounceRole",
      "outputs": [],
      "stateMutability": "nonpayable",
      "type": "function"
    },
    {
      "inputs": [
        {
          "internalType": "address",
          "name": "token",
          "type": "address"
        },
        {
          "internalType": "uint256",
          "name": "amount",
          "type": "uint256"
        }
      ],
      "name": "requestRedemption",
      "outputs": [
        {
          "internalType": "bytes32",
          "name": "",
          "type": "bytes32"
        }
      ],
      "stateMutability": "nonpayable",
      "type": "function"
    },
    {
      "inputs": [
        {
          "internalType": "bytes32",
          "name": "role",
          "type": "bytes32"
        },
        {
          "internalType": "address",
          "name": "account",
          "type": "address"
        }
      ],
      "name": "revokeRole",
      "outputs": [],
      "stateMutability": "nonpayable",
      "type": "function"
    },
    {
      "inputs": [
        {
          "internalType": "bytes32",
          "name": "requestId",
          "type": "bytes32"
        }
      ],
      "name": "settleRedemption",
      "outputs": [],
      "stateMutability": "nonpayable",
      "type": "function"
    },
    {
      "inputs": [
        {
          "internalType": "bytes4",
          "name": "interfaceId",
          "type": "bytes4"
        }
      ],
      "name": "supportsInterface",
      "outputs": [
        {
          "internalType": "bool",
          "name": "",
          "type": "bool"
        }
      ],
      "stateMutability": "view",
      "type": "function"
    }
  ],
  "bytecode": "0x60806040523480156200001157600080fd5b50604051620026b5380380620026b583398181016040528101906200003791906200023a565b60018081905550620000536000801b826200005b60201b60201c565b50506200026c565b60006200006f83836200015e60201b60201c565b6200015357600160008085815260200190815260200160002060000160008473ffffffffffffffffffffffffffffffffffffffff1673ffffffffffffffffffffffffffffffffffffffff16815260200190815260200160002060006101000a81548160ff021916908315150217905550620000ef620001c860201b60201c565b73ffffffffffffffffffffffffffffffffffffffff168273ffffffffffffffffffffffffffffffffffffffff16847f2f8788117e7eff1d82e926ec794901d17c78024a50270940304540a733656f0d60405160405180910390a46001905062000158565b600090505b92915050565b600080600084815260200190815260200160002060000160008373ffffffffffffffffffffffffffffffffffffffff1673ffffffffffffffffffffffffffffffffffffffff16815260200190815260200160002060009054906101000a900460ff16905092915050565b600033905090565b600080fd5b600073ffffffffffffffffffffffffffffffffffffffff82169050919050565b60006200020282620001d5565b9050919050565b6200021481620001f5565b81146200022057600080fd5b50565b600081519050620002348162000209565b92915050565b600060208284031215620002535762000252620001d0565b5b6000620002638482850162000223565b91505092915050565b612439806200027c6000396000f3fe608060405234801561001057600080fd5b50600436106101165760003560e01c8063a217fddf116100a2578063e50fe9b911610071578063e50fe9b91461031e578063e86764521461034e578063ea14d9c11461037e578063f5b541a61461039a578063f851e311146103b857610116565b8063a217fddf14610284578063a419c5d4146102a2578063c13aeda0146102d2578063d547741f1461030257610116565b806336568abe116100e957806336568abe146101b557806347f9797b146101d157806365d8480b146101ed57806391d148541461021d578063a13a240e1461024d57610116565b806301ffc9a71461011b57806309e54b5b1461014b578063248a9ca3146101695780632f2ff15d14610199575b600080fd5b610135600480360381019061013091906117cb565b6103d4565b6040516101429190611813565b60405180910390f35b61015361044e565b6040516101609190611847565b60405180910390f35b610183600480360381019061017e9190611898565b610455565b60405161019091906118d4565b60405180910390f35b6101b360048036038101906101ae919061194d565b610474565b005b6101cf60048036038101906101ca919061194d565b610496565b005b6101eb60048036038101906101e691906119f2565b610511565b005b61020760048036038101906102029190611a7e565b6107c7565b60405161021491906118d4565b60405180910390f35b6102376004803603810190610232919061194d565b610cd9565b6040516102449190611813565b60405180910390f35b61026760048036038101906102629190611898565b610d43565b60405161027b989796959493929190611b44565b60405180910390f35b61028c610dd8565b60405161029991906118d4565b60405180910390f35b6102bc60048036038101906102b79190611a7e565b610ddf565b6040516102c991906118d4565b60405180910390f35b6102ec60048036038101906102e79190611898565b610e10565b6040516102f99190611ca0565b60405180910390f35b61031c6004803603810190610317919061194d565b610f57565b005b61033860048036038101906103339190611cbc565b610f79565b6040516103459190611847565b60405180910390f35b61036860048036038101906103639190611cbc565b610f91565b6040516103759190611d98565b60405180910390f35b61039860048036038101906103939190611dba565b611028565b005b6103a261115f565b6040516103af91906118d4565b60405180910390f35b6103d260048036038101906103cd9190611898565b611183565b005b60007f7965db0b000000000000000000000000000000000000000000000000000000007bffffffffffffffffffffffffffffffffffffffffffffffffffffffff1916827bffffffffffffffffffffffffffffffffffffffffffffffffffffffff191614806104475750610446826113da565b5b9050919050565b6276a70081565b6000806000838152602001908152602001600020600101549050919050565b61047d82610455565b61048681611444565b6104908383611458565b50505050565b61049e611549565b73ffffffffffffffffffffffffffffffffffffffff168173ffffffffffffffffffffffffffffffffffffffff1614610502576040517f6697b23200000000000000000000000000000000000000000000000000000000815260040160405180910390fd5b61050c8282611551565b505050565b7f97667070c54ef182b0f5858b034beac1b6f3089aa2d3188bb1e8929f4fa9b92961053b81611444565b60006002600086815260200190815260200160002090506001600581111561056657610565611acd565b5b8160060160009054906101000a900460ff16600581111561058a57610589611acd565b5b14806105cb5750600360058111156105a5576105a4611acd565b5b8160060160009054906101000a900460ff1660058111156105c9576105c8611acd565b5b145b61060a576040517f08c379a000000000000000000000000000000000000000000000000000000000815260040161060190611e6a565b60405180910390fd5b60008160010160009054906101000a900473ffffffffffffffffffffffffffffffffffffffff1690508073ffffffffffffffffffffffffffffffffffffffff1663a9059cbb8360000160009054906101000a900473ffffffffffffffffffffffffffffffffffffffff1684600201546040518363ffffffff1660e01b8152600401610696929190611e8a565b6020604051808303816000875af11580156106b5573d6000803e3d6000fd5b505050506040513d601f19601f820116820180604052508101906106d99190611edf565b5060058260060160006101000a81548160ff0219169083600581111561070257610701611acd565b5b02179055508160020154600360008460010160009054906101000a900473ffffffffffffffffffffffffffffffffffffffff1673ffffffffffffffffffffffffffffffffffffffff1673ffffffffffffffffffffffffffffffffffffffff168152602001908152602001600020600082825461077e9190611f3b565b92505081905550857fbc90af0705199b504f71ec2fdf21ae338d4f05bb824ebb538a4b69d9ebb608b086866040516107b7929190611fbc565b60405180910390a2505050505050565b60006107d1611643565b60008211610814576040517f08c379a000000000000000000000000000000000000000000000000000000000815260040161080b9061202c565b60405180910390fd5b6000839050828173ffffffffffffffffffffffffffffffffffffffff166370a08231336040518263ffffffff1660e01b8152600401610853919061204c565b602060405180830381865afa158015610870573d6000803e3d6000fd5b505050506040513d601f19601f82011682018060405250810190610894919061207c565b10156108d5576040517f08c379a00000000000000000000000000000000000000000000000000000000081526004016108cc906120f5565b60405180910390fd5b6000338585426040516020016108ee949392919061217e565b60405160208183030381529060405280519060200120905060008273ffffffffffffffffffffffffffffffffffffffff1663a036f25b6040518163ffffffff1660e01b8152600401602060405180830381865afa158015610953573d6000803e3d6000fd5b505050506040513d601f19601f82011682018060405250810190610977919061207c565b90506000670de0b6b3a7640000868361099091906121cc565b61099a919061223d565b90508373ffffffffffffffffffffffffffffffffffffffff166323b872dd3330896040518463ffffffff1660e01b81526004016109d99392919061226e565b6020604051808303816000875af11580156109f8573d6000803e3d6000fd5b505050506040513d601f19601f82011682018060405250810190610a1c9190611edf565b506040518061010001604052803373ffffffffffffffffffffffffffffffffffffffff1681526020018873ffffffffffffffffffffffffffffffffffffffff1681526020018781526020018281526020014281526020016000815260200160016005811115610a8e57610a8d611acd565b5b81526020016000801b8152506002600085815260200190815260200160002060008201518160000160006101000a81548173ffffffffffffffffffffffffffffffffffffffff021916908373ffffffffffffffffffffffffffffffffffffffff16021790555060208201518160010160006101000a81548173ffffffffffffffffffffffffffffffffffffffff021916908373ffffffffffffffffffffffffffffffffffffffff16021790555060408201518160020155606082015181600301556080820151816004015560a0820151816005015560c08201518160060160006101000a81548160ff02191690836005811115610b8e57610b8d611acd565b5b021790555060e0820151816007015590505085600360008973ffffffffffffffffffffffffffffffffffffffff1673ffffffffffffffffffffffffffffffffffffffff1681526020019081526020016000206000828254610bef91906122a5565b92505081905550600460003373ffffffffffffffffffffffffffffffffffffffff1673ffffffffffffffffffffffffffffffffffffffff1681526020019081526020016000208390806001815401808255809150506001900390600052602060002001600090919091909150558673ffffffffffffffffffffffffffffffffffffffff163373ffffffffffffffffffffffffffffffffffffffff16847f35591feb7a211340afbf42b35e4a1de470b4a9115da0eadc1b01906055959fce8942604051610cbc9291906122d9565b60405180910390a482945050505050610cd3611689565b92915050565b600080600084815260200190815260200160002060000160008373ffffffffffffffffffffffffffffffffffffffff1673ffffffffffffffffffffffffffffffffffffffff16815260200190815260200160002060009054906101000a900460ff16905092915050565b60026020528060005260406000206000915090508060000160009054906101000a900473ffffffffffffffffffffffffffffffffffffffff16908060010160009054906101000a900473ffffffffffffffffffffffffffffffffffffffff16908060020154908060030154908060040154908060050154908060060160009054906101000a900460ff16908060070154905088565b6000801b81565b60046020528160005260406000208181548110610dfb57600080fd5b90600052602060002001600091509150505481565b610e186116e3565b60026000838152602001908152602001600020604051806101000160405290816000820160009054906101000a900473ffffffffffffffffffffffffffffffffffffffff1673ffffffffffffffffffffffffffffffffffffffff1673ffffffffffffffffffffffffffffffffffffffff1681526020016001820160009054906101000a900473ffffffffffffffffffffffffffffffffffffffff1673ffffffffffffffffffffffffffffffffffffffff1673ffffffffffffffffffffffffffffffffffffffff168152602001600282015481526020016003820154815260200160048201548152602001600582015481526020016006820160009054906101000a900460ff166005811115610f3057610f2f611acd565b5b6005811115610f4257610f41611acd565b5b81526020016007820154815250509050919050565b610f6082610455565b610f6981611444565b610f738383611551565b50505050565b60036020528060005260406000206000915090505481565b6060600460008373ffffffffffffffffffffffffffffffffffffffff1673ffffffffffffffffffffffffffffffffffffffff16815260200190815260200160002080548060200260200160405190810160405280929190818152602001828054801561101c57602002820191906000526020600020905b815481526020019060010190808311611008575b50505050509050919050565b7f97667070c54ef182b0f5858b034beac1b6f3089aa2d3188bb1e8929f4fa9b92961105281611444565b60006002600086815260200190815260200160002090506001600581111561107d5761107c611acd565b5b8160060160009054906101000a900460ff1660058111156110a1576110a0611acd565b5b146110e1576040517f08c379a00000000000000000000000000000000000000000000000000000000081526004016110d89061234e565b60405180910390fd5b60038160060160006101000a81548160ff0219169083600581111561110957611108611acd565b5b0217905550838160030181905550828160070181905550847f339fe98c8b5995a3ffa8ff948ee7b91749cae84b024b60c2add34f2915583063856040516111509190611847565b60405180910390a25050505050565b7f97667070c54ef182b0f5858b034beac1b6f3089aa2d3188bb1e8929f4fa9b92981565b7f97667070c54ef182b0f5858b034beac1b6f3089aa2d3188bb1e8929f4fa9b9296111ad81611444565b6111b5611643565b6000600260008481526020019081526020016000209050600360058111156111e0576111df611acd565b5b8160060160009054906101000a900460ff16600581111561120457611203611acd565b5b14611244576040517f08c379a000000000000000000000000000000000000000000000000000000000815260040161123b906123ba565b60405180910390fd5b60008160010160009054906101000a900473ffffffffffffffffffffffffffffffffffffffff1690508073ffffffffffffffffffffffffffffffffffffffff166342966c6883600201546040518263ffffffff1660e01b81526004016112aa9190611847565b600060405180830381600087803b1580156112c457600080fd5b505af11580156112d8573d6000803e3d6000fd5b5050505060048260060160006101000a81548160ff0219169083600581111561130457611303611acd565b5b02179055504282600501819055508160020154600360008460010160009054906101000a900473ffffffffffffffffffffffffffffffffffffffff1673ffffffffffffffffffffffffffffffffffffffff1673ffffffffffffffffffffffffffffffffffffffff16815260200190815260200160002060008282546113899190611f3b565b92505081905550837f9870a680e28967764a8d3ec5d5014e20aed6cf87b0f1a64606a69e2e1621c71b83600301546040516113c49190611847565b60405180910390a250506113d6611689565b5050565b60007f01ffc9a7000000000000000000000000000000000000000000000000000000007bffffffffffffffffffffffffffffffffffffffffffffffffffffffff1916827bffffffffffffffffffffffffffffffffffffffffffffffffffffffff1916149050919050565b61145581611450611549565b611692565b50565b60006114648383610cd9565b61153e57600160008085815260200190815260200160002060000160008473ffffffffffffffffffffffffffffffffffffffff1673ffffffffffffffffffffffffffffffffffffffff16815260200190815260200160002060006101000a81548160ff0219169083151502179055506114db611549565b73ffffffffffffffffffffffffffffffffffffffff168273ffffffffffffffffffffffffffffffffffffffff16847f2f8788117e7eff1d82e926ec794901d17c78024a50270940304540a733656f0d60405160405180910390a460019050611543565b600090505b92915050565b600033905090565b600061155d8383610cd9565b1561163857600080600085815260200190815260200160002060000160008473ffffffffffffffffffffffffffffffffffffffff1673ffffffffffffffffffffffffffffffffffffffff16815260200190815260200160002060006101000a81548160ff0219169083151502179055506115d5611549565b73ffffffffffffffffffffffffffffffffffffffff168273ffffffffffffffffffffffffffffffffffffffff16847ff6391f5c32d9c69d2a47ea670b442974b53935d1edc7fd64eb21e047a839171b60405160405180910390a46001905061163d565b600090505b92915050565b60026001540361167f576040517f3ee5aeb500000000000000000000000000000000000000000000000000000000815260040160405180910390fd5b6002600181905550565b60018081905550565b61169c8282610cd9565b6116df5780826040517fe2517d3f0000000000000000000000000000000000000000000000000000000081526004016116d69291906123da565b60405180910390fd5b5050565b604051806101000160405280600073ffffffffffffffffffffffffffffffffffffffff168152602001600073ffffffffffffffffffffffffffffffffffffffff168152602001600081526020016000815260200160008152602001600081526020016000600581111561175957611758611acd565b5b8152602001600080191681525090565b600080fd5b600080fd5b60007fffffffff0000000000000000000000000000000000000000000000000000000082169050919050565b6117a881611773565b81146117b357600080fd5b50565b6000813590506117c58161179f565b92915050565b6000602082840312156117e1576117e0611769565b5b60006117ef848285016117b6565b91505092915050565b60008115159050919050565b61180d816117f8565b82525050565b60006020820190506118286000830184611804565b92915050565b6000819050919050565b6118418161182e565b82525050565b600060208201905061185c6000830184611838565b92915050565b6000819050919050565b61187581611862565b811461188057600080fd5b50565b6000813590506118928161186c565b92915050565b6000602082840312156118ae576118ad611769565b5b60006118bc84828501611883565b91505092915050565b6118ce81611862565b82525050565b60006020820190506118e960008301846118c5565b92915050565b600073ffffffffffffffffffffffffffffffffffffffff82169050919050565b600061191a826118ef565b9050919050565b61192a8161190f565b811461193557600080fd5b50565b60008135905061194781611921565b92915050565b6000806040838503121561196457611963611769565b5b600061197285828601611883565b925050602061198385828601611938565b9150509250929050565b600080fd5b600080fd5b600080fd5b60008083601f8401126119b2576119b161198d565b5b8235905067ffffffffffffffff8111156119cf576119ce611992565b5b6020830191508360018202830111156119eb576119ea611997565b5b9250929050565b600080600060408486031215611a0b57611a0a611769565b5b6000611a1986828701611883565b935050602084013567ffffffffffffffff811115611a3a57611a3961176e565b5b611a468682870161199c565b92509250509250925092565b611a5b8161182e565b8114611a6657600080fd5b50565b600081359050611a7881611a52565b92915050565b60008060408385031215611a9557611a94611769565b5b6000611aa385828601611938565b9250506020611ab485828601611a69565b9150509250929050565b611ac78161190f565b82525050565b7f4e487b7100000000000000000000000000000000000000000000000000000000600052602160045260246000fd5b60068110611b0d57611b0c611acd565b5b50565b6000819050611b1e82611afc565b919050565b6000611b2e82611b10565b9050919050565b611b3e81611b23565b82525050565b600061010082019050611b5a600083018b611abe565b611b67602083018a611abe565b611b746040830189611838565b611b816060830188611838565b611b8e6080830187611838565b611b9b60a0830186611838565b611ba860c0830185611b35565b611bb560e08301846118c5565b9998505050505050505050565b611bcb8161190f565b82525050565b611bda8161182e565b82525050565b611be981611b23565b82525050565b611bf881611862565b82525050565b61010082016000820151611c156000850182611bc2565b506020820151611c286020850182611bc2565b506040820151611c3b6040850182611bd1565b506060820151611c4e6060850182611bd1565b506080820151611c616080850182611bd1565b5060a0820151611c7460a0850182611bd1565b5060c0820151611c8760c0850182611be0565b5060e0820151611c9a60e0850182611bef565b50505050565b600061010082019050611cb66000830184611bfe565b92915050565b600060208284031215611cd257611cd1611769565b5b6000611ce084828501611938565b91505092915050565b600081519050919050565b600082825260208201905092915050565b6000819050602082019050919050565b6000611d218383611bef565b60208301905092915050565b6000602082019050919050565b6000611d4582611ce9565b611d4f8185611cf4565b9350611d5a83611d05565b8060005b83811015611d8b578151611d728882611d15565b9750611d7d83611d2d565b925050600181019050611d5e565b5085935050505092915050565b60006020820190508181036000830152611db28184611d3a565b905092915050565b600080600060608486031215611dd357611dd2611769565b5b6000611de186828701611883565b9350506020611df286828701611a69565b9250506040611e0386828701611883565b9150509250925092565b600082825260208201905092915050565b7f43616e6e6f742063616e63656c00000000000000000000000000000000000000600082015250565b6000611e54600d83611e0d565b9150611e5f82611e1e565b602082019050919050565b60006020820190508181036000830152611e8381611e47565b9050919050565b6000604082019050611e9f6000830185611abe565b611eac6020830184611838565b9392505050565b611ebc816117f8565b8114611ec757600080fd5b50565b600081519050611ed981611eb3565b92915050565b600060208284031215611ef557611ef4611769565b5b6000611f0384828501611eca565b91505092915050565b7f4e487b7100000000000000000000000000000000000000000000000000000000600052601160045260246000fd5b6000611f468261182e565b9150611f518361182e565b9250828203905081811115611f6957611f68611f0c565b5b92915050565b82818337600083830152505050565b6000601f19601f8301169050919050565b6000611f9b8385611e0d565b9350611fa8838584611f6f565b611fb183611f7e565b840190509392505050565b60006020820190508181036000830152611fd7818486611f8f565b90509392505050565b7f496e76616c696420616d6f756e74000000000000000000000000000000000000600082015250565b6000612016600e83611e0d565b915061202182611fe0565b602082019050919050565b6000602082019050818103600083015261204581612009565b9050919050565b60006020820190506120616000830184611abe565b92915050565b60008151905061207681611a52565b92915050565b60006020828403121561209257612091611769565b5b60006120a084828501612067565b91505092915050565b7f496e73756666696369656e742062616c616e6365000000000000000000000000600082015250565b60006120df601483611e0d565b91506120ea826120a9565b602082019050919050565b6000602082019050818103600083015261210e816120d2565b9050919050565b60008160601b9050919050565b600061212d82612115565b9050919050565b600061213f82612122565b9050919050565b6121576121528261190f565b612134565b82525050565b6000819050919050565b6121786121738261182e565b61215d565b82525050565b600061218a8287612146565b60148201915061219a8286612146565b6014820191506121aa8285612167565b6020820191506121ba8284612167565b60208201915081905095945050505050565b60006121d78261182e565b91506121e28361182e565b92508282026121f08161182e565b9150828204841483151761220757612206611f0c565b5b5092915050565b7f4e487b7100000000000000000000000000000000000000000000000000000000600052601260045260246000fd5b60006122488261182e565b91506122538361182e565b9250826122635761226261220e565b5b828204905092915050565b60006060820190506122836000830186611abe565b6122906020830185611abe565b61229d6040830184611838565b949350505050565b60006122b08261182e565b91506122bb8361182e565b92508282019050808211156122d3576122d2611f0c565b5b92915050565b60006040820190506122ee6000830185611838565b6122fb6020830184611838565b9392505050565b7f496e76616c696420737461747573000000000000000000000000000000000000600082015250565b6000612338600e83611e0d565b915061234382612302565b602082019050919050565b600060208201905081810360008301526123678161232b565b9050919050565b7f4e6f7420617070726f7665640000000000000000000000000000000000000000600082015250565b60006123a4600c83611e0d565b91506123af8261236e565b602082019050919050565b600060208201905081810360008301526123d381612397565b9050919050565b60006040820190506123ef6000830185611abe565b6123fc60208301846118c5565b939250505056fea2646970667358221220a0acd835660b917ab8ad4e1aca0a3a459fbe24b791eff210a9b537335636c6a764736f6c63430008140033",
  "linkReferences": {},
  "deployedLinkReferences": {}
}