{"contracts/redemption/AsyncRedemptionController.sol":{"AsyncRedemptionController":{"abi":[{"inputs":[{"internalType":"address","name":"admin","type":"address"}],"stateMutability":"nonpayable","type":"constructor"},{"inputs":[],"name":"AccessControlBadConfirmation","type":"error"},{"inputs":[{"internalType":"address","name":"account","type":"address"},{"internalType":"bytes32","name":"neededRole","type":"bytes32"}],"name":"AccessControlUnauthorizedAccount","type":"error"},{"inputs":[],"name":"ReentrancyGuardReentrantCall","type":"error"},{"anonymous":false,"inputs":[{"indexed":true,"internalType":"bytes32","name":"requestId","type":"bytes32"},{"indexed":false,"internalType":"uint256","name":"settlementValue","type":"uint256"}],"name":"RedemptionApproved","type":"event"},{"anonymous":false,"inputs":[{"indexed":true,"internalType":"bytes32","name":"requestId","type":"bytes32"},{"indexed":false,"internalType":"string","name":"reason","type":"string"}],"name":"RedemptionCancelled","type":"event"},{"anonymous":false,"inputs":[{"indexed":true,"internalType":"bytes32","name":"requestId","type":"bytes32"},{"indexed":true,"internalType":"address","name":"investor","type":"address"},{"indexed":true,"internalType":"address","name":"token","type":"address"},{"indexed":false,"internalType":"uint256","name":"amount","type":"uint256"},{"indexed":false,"internalType":"uint256","name":"timestamp","type":"uint256"}],"name":"RedemptionRequested","type":"event"},{"anonymous":false,"inputs":[{"indexed":true,"internalType":"bytes32","name":"requestId","type":"bytes32"},{"indexed":false,"internalType":"uint256","name":"actualValue","type":"uint256"}],"name":"RedemptionSettled","type":"event"},{"anonymous":false,"inputs":[{"indexed":true,"internalType":"bytes32","name":"role","type":"bytes32"},{"indexed":true,"internalType":"bytes32","name":"previousAdminRole","type":"bytes32"},{"indexed":true,"internalType":"bytes32","name":"newAdminRole","type":"bytes32"}],"name":"RoleAdminChanged","type":"event"},{"anonymous":false,"inputs":[{"indexed":true,"internalType":"bytes32","name":"role","type":"bytes32"},{"indexed":true,"internalType":"address","name":"account","type":"address"},{"indexed":true,"internalType":"address","name":"sender","type":"address"}],"name":"RoleGranted","type":"event"},{"anonymous":false,"inputs":[{"indexed":true,"internalType":"bytes32","name":"role","type":"bytes32"},{"indexed":true,"internalType":"address","name":"account","type":"address"},{"indexed":true,"internalType":"address","name":"sender","type":"address"}],"name":"RoleRevoked","type":"event"},{"inputs":[],"name":"DEFAULT_ADMIN_ROLE","outputs":[{"internalType":"bytes32","name":"","type":"bytes32"}],"stateMutability":"view","type":"function"},{"inputs":[],"name":"OPERATOR_ROLE","outputs":[{"internalType":"bytes32","name":"","type":"bytes32"}],"stateMutability":"view","type":"function"},{"inputs":[],"name":"SETTLEMENT_PERIOD","outputs":[{"internalType":"uint256","name":"","type":"uint256"}],"stateMutability":"view","type":"function"},{"inputs":[{"internalType":"bytes32","name":"requestId","type":"bytes32"},{"internalType":"uint256","name":"settlementValue","type":"uint256"},{"internalType":"bytes32","name":"proofHash","type":"bytes32"}],"name":"approveRedemption","outputs":[],"stateMutability":"nonpayable","type":"function"},{"inputs":[{"internalType":"bytes32","name":"requestId","type":"bytes32"},{"internalType":"string","name":"reason","type":"string"}],"name":"cancelRedemption","outputs":[],"stateMutability":"nonpayable","type":"function"},{"inputs":[{"internalType":"address","name":"investor","type":"address"}],"name":"getInvestorRequests","outputs":[{"internalType":"bytes32[]","name":"","type":"bytes32[]"}],"stateMutability":"view","type":"function"},{"inputs":[{"internalType":"bytes32","name":"requestId","type":"bytes32"}],"name":"getRedemptionRequest","outputs":[{"components":[{"internalType":"address","name":"investor","type":"address"},{"internalType":"address","name":"token","type":"address"},{"internalType":"uint256","name":"tokenAmount","type":"uint256"},{"internalType":"uint256","name":"estimatedValue","type":"uint256"},{"internalType":"uint256","name":"requestTime","type":"uint256"},{"internalType":"uint256","name":"settlementTime","type":"uint256"},{"internalType":"enum AsyncRedemptionController.RedemptionStatus","name":"status","type":"uint8"},{"internalType":"bytes32","name":"proofHash","type":"bytes32"}],"internalType":"struct AsyncRedemptionController.RedemptionRequest","name":"","type":"tuple"}],"stateMutability":"view","type":"function"},{"inputs":[{"internalType":"bytes32","name":"role","type":"bytes32"}],"name":"getRoleAdmin","outputs":[{"internalType":"bytes32","name":"","type":"bytes32"}],"stateMutability":"view","type":"function"},{"inputs":[{"internalType":"bytes32","name":"role","type":"bytes32"},{"internalType":"address","name":"account","type":"address"}],"name":"grantRole","outputs":[],"stateMutability":"nonpayable","type":"function"},{"inputs":[{"internalType":"bytes32","name":"role","type":"bytes32"},{"internalType":"address","name":"account","type":"address"}],"name":"hasRole","outputs":[{"internalType":"bool","name":"","type":"bool"}],"stateMutability":"view","type":"function"},{"inputs":[{"internalType":"address","name":"","type":"address"},{"internalType":"uint256","name":"","type":"uint256"}],"name":"investorRequests","outputs":[{"internalType":"bytes32","name":"","type":"bytes32"}],"stateMutability":"view","type":"function"},{"inputs":[{"internalType":"address","name":"","type":"address"}],"name":"pendingRedemptions","outputs":[{"internalType":"uint256","name":"","type":"uint256"}],"stateMutability":"view","type":"function"},{"inputs":[{"internalType":"bytes32","name":"","type":"bytes32"}],"name":"redemptionRequests","outputs":[{"internalType":"address","name":"investor","type":"address"},{"internalType":"address","name":"token","type":"address"},{"internalType":"uint256","name":"tokenAmount","type":"uint256"},{"internalType":"uint256","name":"estimatedValue","type":"uint256"},{"internalType":"uint256","name":"requestTime","type":"uint256"},{"internalType":"uint256","name":"settlementTime","type":"uint256"},{"internalType":"enum AsyncRedemptionController.RedemptionStatus","name":"status","type":"uint8"},{"internalType":"bytes32","name":"proofHash","type":"bytes32"}],"stateMutability":"view","type":"function"},{"inputs":[{"internalType":"bytes32","name":"role","type":"bytes32"},{"internalType":"address","name":"callerConfirmation","type":"address"}],"name":"renounceRole","outputs":[],"stateMutability":"nonpayable","type":"function"},{"inputs":[{"internalType":"address","name":"token","type":"address"},{"internalType":"uint256","name":"amount","type":"uint256"}],"name":"requestRedemption","outputs":[{"internalType":"bytes32","name":"","type":"bytes32"}],"stateMutability":"nonpayable","type":"function"},{"inputs":[{"internalType":"bytes32","name":"role","type":"bytes32"},{"internalType":"address","name":"account","type":"address"}],"name":"revokeRole","outputs":[],"stateMutability":"nonpayable","type":"function"},{"inputs":[{"internalType":"bytes32","name":"requestId","type":"bytes32"}],"name":"settleRedemption","outputs":[],"stateMutability":"nonpayable","type":"function"},{"inputs":[{"internalType":"bytes4","name":"interfaceId","type":"bytes4"}],"name":"supportsInterface","outputs":[{"internalType":"bool","name":"","type":"bool"}],"stateMutability":"view","type":"function"}],"evm":{"bytecode":{"linkReferences":{},"object":"60806040523480156200001157600080fd5b50604051620026b5380380620026b583398181016040528101906200003791906200023a565b60018081905550620000536000801b826200005b60201b60201c565b50506200026c565b60006200006f83836200015e60201b60201c565b6200015357600160008085815260200190815260200160002060000160008473ffffffffffffffffffffffffffffffffffffffff1673ffffffffffffffffffffffffffffffffffffffff16815260200190815260200160002060006101000a81548160ff021916908315150217905550620000ef620001c860201b60201c565b73ffffffffffffffffffffffffffffffffffffffff168273ffffffffffffffffffffffffffffffffffffffff16847f2f8788117e7eff1d82e926ec794901d17c78024a50270940304540a733656f0d60405160405180910390a46001905062000158565b600090505b92915050565b600080600084815260200190815260200160002060000160008373ffffffffffffffffffffffffffffffffffffffff1673ffffffffffffffffffffffffffffffffffffffff16815260200190815260200160002060009054906101000a900460ff16905092915050565b600033905090565b600080fd5b600073ffffffffffffffffffffffffffffffffffffffff82169050919050565b60006200020282620001d5565b9050919050565b6200021481620001f5565b81146200022057600080fd5b50565b600081519050620002348162000209565b92915050565b600060208284031215620002535762000252620001d0565b5b6000620002638482850162000223565b91505092915050565b612439806200027c6000396000f3fe608060405234801561001057600080fd5b50600436106101165760003560e01c8063a217fddf116100a2578063e50fe9b911610071578063e50fe9b91461031e578063e86764521461034e578063ea14d9c11461037e578063f5b541a61461039a578063f851e311146103b857610116565b8063a217fddf14610284578063a419c5d4146102a2578063c13aeda0146102d2578063d547741f1461030257610116565b806336568abe116100e957806336568abe146101b557806347f9797b146101d157806365d8480b146101ed57806391d148541461021d578063a13a240e1461024d57610116565b806301ffc9a71461011b57806309e54b5b1461014b578063248a9ca3146101695780632f2ff15d14610199575b600080fd5b610135600480360381019061013091906117cb565b6103d4565b6040516101429190611813565b60405180910390f35b61015361044e565b6040516101609190611847565b60405180910390f35b610183600480360381019061017e9190611898565b610455565b60405161019091906118d4565b60405180910390f35b6101b360048036038101906101ae919061194d565b610474565b005b6101cf60048036038101906101ca919061194d565b610496565b005b6101eb60048036038101906101e691906119f2565b610511565b005b61020760048036038101906102029190611a7e565b6107c7565b60405161021491906118d4565b60405180910390f35b6102376004803603810190610232919061194d565b610cd9565b6040516102449190611813565b60405180910390f35b61026760048036038101906102629190611898565b610d43565b60405161027b989796959493929190611b44565b60405180910390f35b61028c610dd8565b60405161029991906118d4565b60405180910390f35b6102bc60048036038101906102b79190611a7e565b610ddf565b6040516102c991906118d4565b60405180910390f35b6102ec60048036038101906102e79190611898565b610e10565b6040516102f99190611ca0565b60405180910390f35b61031c6004803603810190610317919061194d565b610f57565b005b61033860048036038101906103339190611cbc565b610f79565b6040516103459190611847565b60405180910390f35b61036860048036038101906103639190611cbc565b610f91565b6040516103759190611d98565b60405180910390f35b61039860048036038101906103939190611dba565b611028565b005b6103a261115f565b6040516103af91906118d4565b60405180910390f35b6103d260048036038101906103cd9190611898565b611183565b005b60007f7965db0b000000000000000000000000000000000000000000000000000000007bffffffffffffffffffffffffffffffffffffffffffffffffffffffff1916827bffffffffffffffffffffffffffffffffffffffffffffffffffffffff191614806104475750610446826113da565b5b9050919050565b6276a70081565b6000806000838152602001908152602001600020600101549050919050565b61047d82610455565b61048681611444565b6104908383611458565b50505050565b61049e611549565b73ffffffffffffffffffffffffffffffffffffffff168173ffffffffffffffffffffffffffffffffffffffff1614610502576040517f6697b23200000000000000000000000000000000000000000000000000000000815260040160405180910390fd5b61050c8282611551565b505050565b7f97667070c54ef182b0f5858b034beac1b6f3089aa2d3188bb1e8929f4fa9b92961053b81611444565b60006002600086815260200190815260200160002090506001600581111561056657610565611acd565b5b8160060160009054906101000a900460ff16600581111561058a57610589611acd565b5b14806105cb5750600360058111156105a5576105a4611acd565b5b8160060160009054906101000a900460ff1660058111156105c9576105c8611acd565b5b145b61060a576040517f08c379a000000000000000000000000000000000000000000000000000000000815260040161060190611e6a565b60405180910390fd5b60008160010160009054906101000a900473ffffffffffffffffffffffffffffffffffffffff1690508073ffffffffffffffffffffffffffffffffffffffff1663a9059cbb8360000160009054906101000a900473ffffffffffffffffffffffffffffffffffffffff1684600201546040518363ffffffff1660e01b8152600401610696929190611e8a565b6020604051808303816000875af11580156106b5573d6000803e3d6000fd5b505050506040513d601f19601f820116820180604052508101906106d99190611edf565b5060058260060160006101000a81548160ff0219169083600581111561070257610701611acd565b5b02179055508160020154600360008460010160009054906101000a900473ffffffffffffffffffffffffffffffffffffffff1673ffffffffffffffffffffffffffffffffffffffff1673ffffffffffffffffffffffffffffffffffffffff168152602001908152602001600020600082825461077e9190611f3b565b92505081905550857fbc90af0705199b504f71ec2fdf21ae338d4f05bb824ebb538a4b69d9ebb608b086866040516107b7929190611fbc565b60405180910390a2505050505050565b60006107d1611643565b60008211610814576040517f08c379a000000000000000000000000000000000000000000000000000000000815260040161080b9061202c565b60405180910390fd5b6000839050828173ffffffffffffffffffffffffffffffffffffffff166370a08231336040518263ffffffff1660e01b8152600401610853919061204c565b602060405180830381865afa158015610870573d6000803e3d6000fd5b505050506040513d601f19601f82011682018060405250810190610894919061207c565b10156108d5576040517f08c379a00000000000000000000000000000000000000000000000000000000081526004016108cc906120f5565b60405180910390fd5b6000338585426040516020016108ee949392919061217e565b60405160208183030381529060405280519060200120905060008273ffffffffffffffffffffffffffffffffffffffff1663a036f25b6040518163ffffffff1660e01b8152600401602060405180830381865afa158015610953573d6000803e3d6000fd5b505050506040513d601f19601f82011682018060405250810190610977919061207c565b90506000670de0b6b3a7640000868361099091906121cc565b61099a919061223d565b90508373ffffffffffffffffffffffffffffffffffffffff166323b872dd3330896040518463ffffffff1660e01b81526004016109d99392919061226e565b6020604051808303816000875af11580156109f8573d6000803e3d6000fd5b505050506040513d601f19601f82011682018060405250810190610a1c9190611edf565b506040518061010001604052803373ffffffffffffffffffffffffffffffffffffffff1681526020018873ffffffffffffffffffffffffffffffffffffffff1681526020018781526020018281526020014281526020016000815260200160016005811115610a8e57610a8d611acd565b5b81526020016000801b8152506002600085815260200190815260200160002060008201518160000160006101000a81548173ffffffffffffffffffffffffffffffffffffffff021916908373ffffffffffffffffffffffffffffffffffffffff16021790555060208201518160010160006101000a81548173ffffffffffffffffffffffffffffffffffffffff021916908373ffffffffffffffffffffffffffffffffffffffff16021790555060408201518160020155606082015181600301556080820151816004015560a0820151816005015560c08201518160060160006101000a81548160ff02191690836005811115610b8e57610b8d611acd565b5b021790555060e0820151816007015590505085600360008973ffffffffffffffffffffffffffffffffffffffff1673ffffffffffffffffffffffffffffffffffffffff1681526020019081526020016000206000828254610bef91906122a5565b92505081905550600460003373ffffffffffffffffffffffffffffffffffffffff1673ffffffffffffffffffffffffffffffffffffffff1681526020019081526020016000208390806001815401808255809150506001900390600052602060002001600090919091909150558673ffffffffffffffffffffffffffffffffffffffff163373ffffffffffffffffffffffffffffffffffffffff16847f35591feb7a211340afbf42b35e4a1de470b4a9115da0eadc1b01906055959fce8942604051610cbc9291906122d9565b60405180910390a482945050505050610cd3611689565b92915050565b600080600084815260200190815260200160002060000160008373ffffffffffffffffffffffffffffffffffffffff1673ffffffffffffffffffffffffffffffffffffffff16815260200190815260200160002060009054906101000a900460ff16905092915050565b60026020528060005260406000206000915090508060000160009054906101000a900473ffffffffffffffffffffffffffffffffffffffff16908060010160009054906101000a900473ffffffffffffffffffffffffffffffffffffffff16908060020154908060030154908060040154908060050154908060060160009054906101000a900460ff16908060070154905088565b6000801b81565b60046020528160005260406000208181548110610dfb57600080fd5b90600052602060002001600091509150505481565b610e186116e3565b60026000838152602001908152602001600020604051806101000160405290816000820160009054906101000a900473ffffffffffffffffffffffffffffffffffffffff1673ffffffffffffffffffffffffffffffffffffffff1673ffffffffffffffffffffffffffffffffffffffff1681526020016001820160009054906101000a900473ffffffffffffffffffffffffffffffffffffffff1673ffffffffffffffffffffffffffffffffffffffff1673ffffffffffffffffffffffffffffffffffffffff168152602001600282015481526020016003820154815260200160048201548152602001600582015481526020016006820160009054906101000a900460ff166005811115610f3057610f2f611acd565b5b6005811115610f4257610f41611acd565b5b81526020016007820154815250509050919050565b610f6082610455565b610f6981611444565b610f738383611551565b50505050565b60036020528060005260406000206000915090505481565b6060600460008373ffffffffffffffffffffffffffffffffffffffff1673ffffffffffffffffffffffffffffffffffffffff16815260200190815260200160002080548060200260200160405190810160405280929190818152602001828054801561101c57602002820191906000526020600020905b815481526020019060010190808311611008575b50505050509050919050565b7f97667070c54ef182b0f5858b034beac1b6f3089aa2d3188bb1e8929f4fa9b92961105281611444565b60006002600086815260200190815260200160002090506001600581111561107d5761107c611acd565b5b8160060160009054906101000a900460ff1660058111156110a1576110a0611acd565b5b146110e1576040517f08c379a00000000000000000000000000000000000000000000000000000000081526004016110d89061234e565b60405180910390fd5b60038160060160006101000a81548160ff0219169083600581111561110957611108611acd565b5b0217905550838160030181905550828160070181905550847f339fe98c8b5995a3ffa8ff948ee7b91749cae84b024b60c2add34f2915583063856040516111509190611847565b60405180910390a25050505050565b7f97667070c54ef182b0f5858b034beac1b6f3089aa2d3188bb1e8929f4fa9b92981565b7f97667070c54ef182b0f5858b034beac1b6f3089aa2d3188bb1e8929f4fa9b9296111ad81611444565b6111b5611643565b6000600260008481526020019081526020016000209050600360058111156111e0576111df611acd565b5b8160060160009054906101000a900460ff16600581111561120457611203611acd565b5b14611244576040517f08c379a000000000000000000000000000000000000000000000000000000000815260040161123b906123ba565b60405180910390fd5b60008160010160009054906101000a900473ffffffffffffffffffffffffffffffffffffffff1690508073ffffffffffffffffffffffffffffffffffffffff166342966c6883600201546040518263ffffffff1660e01b81526004016112aa9190611847565b600060405180830381600087803b1580156112c457600080fd5b505af11580156112d8573d6000803e3d6000fd5b5050505060048260060160006101000a81548160ff0219169083600581111561130457611303611acd565b5b02179055504282600501819055508160020154600360008460010160009054906101000a900473ffffffffffffffffffffffffffffffffffffffff1673ffffffffffffffffffffffffffffffffffffffff1673ffffffffffffffffffffffffffffffffffffffff16815260200190815260200160002060008282546113899190611f3b565b92505081905550837f9870a680e28967764a8d3ec5d5014e20aed6cf87b0f1a64606a69e2e1621c71b83600301546040516113c49190611847565b60405180910390a250506113d6611689565b5050565b60007f01ffc9a7000000000000000000000000000000000000000000000000000000007bffffffffffffffffffffffffffffffffffffffffffffffffffffffff1916827bffffffffffffffffffffffffffffffffffffffffffffffffffffffff1916149050919050565b61145581611450611549565b611692565b50565b60006114648383610cd9565b61153e57600160008085815260200190815260200160002060000160008473ffffffffffffffffffffffffffffffffffffffff1673ffffffffffffffffffffffffffffffffffffffff16815260200190815260200160002060006101000a81548160ff0219169083151502179055506114db611549565b73ffffffffffffffffffffffffffffffffffffffff168273ffffffffffffffffffffffffffffffffffffffff16847f2f8788117e7eff1d82e926ec794901d17c78024a50270940304540a733656f0d60405160405180910390a460019050611543565b600090505b92915050565b600033905090565b600061155d8383610cd9565b1561163857600080600085815260200190815260200160002060000160008473ffffffffffffffffffffffffffffffffffffffff1673ffffffffffffffffffffffffffffffffffffffff16815260200190815260200160002060006101000a81548160ff0219169083151502179055506115d5611549565b73ffffffffffffffffffffffffffffffffffffffff168273ffffffffffffffffffffffffffffffffffffffff16847ff6391f5c32d9c69d2a47ea670b442974b53935d1edc7fd64eb21e047a839171b60405160405180910390a46001905061163d565b600090505b92915050565b60026001540361167f576040517f3ee5aeb500000000000000000000000000000000000000000000000000000000815260040160405180910390fd5b6002600181905550565b60018081905550565b61169c8282610cd9565b6116df5780826040517fe2517d3f0000000000000000000000000000000000000000000000000000000081526004016116d69291906123da565b60405180910390fd5b5050565b604051806101000160405280600073ffffffffffffffffffffffffffffffffffffffff168152602001600073ffffffffffffffffffffffffffffffffffffffff168152602001600081526020016000815260200160008152602001600081526020016000600581111561175957611758611acd565b5b8152602001600080191681525090565b600080fd5b600080fd5b60007fffffffff0000000000000000000000000000000000000000000000000000000082169050919050565b6117a881611773565b81146117b357600080fd5b50565b6000813590506117c58161179f565b92915050565b6000602082840312156117e1576117e0611769565b5b60006117ef848285016117b6565b91505092915050565b60008115159050919050565b61180d816117f8565b82525050565b60006020820190506118286000830184611804565b92915050565b6000819050919050565b6118418161182e565b82525050565b600060208201905061185c6000830184611838565b92915050565b6000819050919050565b61187581611862565b811461188057600080fd5b50565b6000813590506118928161186c565b92915050565b6000602082840312156118ae576118ad611769565b5b60006118bc84828501611883565b91505092915050565b6118ce81611862565b82525050565b60006020820190506118e960008301846118c5565b92915050565b600073ffffffffffffffffffffffffffffffffffffffff82169050919050565b600061191a826118ef565b9050919050565b61192a8161190f565b811461193557600080fd5b50565b60008135905061194781611921565b92915050565b6000806040838503121561196457611963611769565b5b600061197285828601611883565b925050602061198385828601611938565b9150509250929050565b600080fd5b600080fd5b600080fd5b60008083601f8401126119b2576119b161198d565b5b8235905067ffffffffffffffff8111156119cf576119ce611992565b5b6020830191508360018202830111156119eb576119ea611997565b5b9250929050565b600080600060408486031215611a0b57611a0a611769565b5b6000611a1986828701611883565b935050602084013567ffffffffffffffff811115611a3a57611a3961176e565b5b611a468682870161199c565b92509250509250925092565b611a5b8161182e565b8114611a6657600080fd5b50565b600081359050611a7881611a52565b92915050565b60008060408385031215611a9557611a94611769565b5b6000611aa385828601611938565b9250506020611ab485828601611a69565b9150509250929050565b611ac78161190f565b82525050565b7f4e487b7100000000000000000000000000000000000000000000000000000000600052602160045260246000fd5b60068110611b0d57611b0c611acd565b5b50565b6000819050611b1e82611afc565b919050565b6000611b2e82611b10565b9050919050565b611b3e81611b23565b82525050565b600061010082019050611b5a600083018b611abe565b611b67602083018a611abe565b611b746040830189611838565b611b816060830188611838565b611b8e6080830187611838565b611b9b60a0830186611838565b611ba860c0830185611b35565b611bb560e08301846118c5565b9998505050505050505050565b611bcb8161190f565b82525050565b611bda8161182e565b82525050565b611be981611b23565b82525050565b611bf881611862565b82525050565b61010082016000820151611c156000850182611bc2565b506020820151611c286020850182611bc2565b506040820151611c3b6040850182611bd1565b506060820151611c4e6060850182611bd1565b506080820151611c616080850182611bd1565b5060a0820151611c7460a0850182611bd1565b5060c0820151611c8760c0850182611be0565b5060e0820151611c9a60e0850182611bef565b50505050565b600061010082019050611cb66000830184611bfe565b92915050565b600060208284031215611cd257611cd1611769565b5b6000611ce084828501611938565b91505092915050565b600081519050919050565b600082825260208201905092915050565b6000819050602082019050919050565b6000611d218383611bef565b60208301905092915050565b6000602082019050919050565b6000611d4582611ce9565b611d4f8185611cf4565b9350611d5a83611d05565b8060005b83811015611d8b578151611d728882611d15565b9750611d7d83611d2d565b925050600181019050611d5e565b5085935050505092915050565b60006020820190508181036000830152611db28184611d3a565b905092915050565b600080600060608486031215611dd357611dd2611769565b5b6000611de186828701611883565b9350506020611df286828701611a69565b9250506040611e0386828701611883565b9150509250925092565b600082825260208201905092915050565b7f43616e6e6f742063616e63656c00000000000000000000000000000000000000600082015250565b6000611e54600d83611e0d565b9150611e5f82611e1e565b602082019050919050565b60006020820190508181036000830152611e8381611e47565b9050919050565b6000604082019050611e9f6000830185611abe565b611eac6020830184611838565b9392505050565b611ebc816117f8565b8114611ec757600080fd5b50565b600081519050611ed981611eb3565b92915050565b600060208284031215611ef557611ef4611769565b5b6000611f0384828501611eca565b91505092915050565b7f4e487b7100000000000000000000000000000000000000000000000000000000600052601160045260246000fd5b6000611f468261182e565b9150611f518361182e565b9250828203905081811115611f6957611f68611f0c565b5b92915050565b82818337600083830152505050565b6000601f19601f8301169050919050565b6000611f9b8385611e0d565b9350611fa8838584611f6f565b611fb183611f7e565b840190509392505050565b60006020820190508181036000830152611fd7818486611f8f565b90509392505050565b7f496e76616c696420616d6f756e74000000000000000000000000000000000000600082015250565b6000612016600e83611e0d565b915061202182611fe0565b602082019050919050565b6000602082019050818103600083015261204581612009565b9050919050565b60006020820190506120616000830184611abe565b92915050565b60008151905061207681611a52565b92915050565b60006020828403121561209257612091611769565b5b60006120a084828501612067565b91505092915050565b7f496e73756666696369656e742062616c616e6365000000000000000000000000600082015250565b60006120df601483611e0d565b91506120ea826120a9565b602082019050919050565b6000602082019050818103600083015261210e816120d2565b9050919050565b60008160601b9050919050565b600061212d82612115565b9050919050565b600061213f82612122565b9050919050565b6121576121528261190f565b612134565b82525050565b6000819050919050565b6121786121738261182e565b61215d565b82525050565b600061218a8287612146565b60148201915061219a8286612146565b6014820191506121aa8285612167565b6020820191506121ba8284612167565b60208201915081905095945050505050565b60006121d78261182e565b91506121e28361182e565b92508282026121f08161182e565b9150828204841483151761220757612206611f0c565b5b5092915050565b7f4e487b7100000000000000000000000000000000000000000000000000000000600052601260045260246000fd5b60006122488261182e565b91506122538361182e565b9250826122635761226261220e565b5b828204905092915050565b60006060820190506122836000830186611abe565b6122906020830185611abe565b61229d6040830184611838565b949350505050565b60006122b08261182e565b91506122bb8361182e565b92508282019050808211156122d3576122d2611f0c565b5b92915050565b60006040820190506122ee6000830185611838565b6122fb6020830184611838565b9392505050565b7f496e76616c696420737461747573000000000000000000000000000000000000600082015250565b6000612338600e83611e0d565b915061234382612302565b602082019050919050565b600060208201905081810360008301526123678161232b565b9050919050565b7f4e6f7420617070726f7665640000000000000000000000000000000000000000600082015250565b60006123a4600c83611e0d565b91506123af8261236e565b602082019050919050565b600060208201905081810360008301526123d381612397565b9050919050565b60006040820190506123ef6000830185611abe565b6123fc60208301846118c5565b939250505056fea2646970667358221220a0acd835660b917ab8ad4e1aca0a3a459fbe24b791eff210a9b537335636c6a764736f6c63430008140033","opcodes":"PUSH1 0x80 PUSH1 0x40 MSTORE CALLVALUE DUP1 ISZERO PUSH3 0x11 JUMPI PUSH1 0x0 DUP1 REVERT JUMPDEST POP PUSH1 0x40 MLOAD PUSH3 0x26B5 CODESIZE SUB DUP1 PUSH3 0x26B5 DUP4 CODECOPY DUP2 DUP2 ADD PUSH1 0x40 MSTORE DUP2 ADD SWAP1 PUSH3 0x37 SWAP2 SWAP1 PUSH3 0x23A JUMP JUMPDEST PUSH1 0x1 DUP1 DUP2 SWAP1 SSTORE POP PUSH3 0x53 PUSH1 0x0 DUP1 SHL DUP3 PUSH3 0x5B PUSH1 0x20 SHL PUSH1 0x20 SHR JUMP JUMPDEST POP POP PUSH3 0x26C JUMP JUMPDEST PUSH1 0x0 PUSH3 0x6F DUP4 DUP4 PUSH3 0x15E PUSH1 0x20 SHL PUSH1 0x20 SHR JUMP JUMPDEST PUSH3 0x153 JUMPI PUSH1 0x1 PUSH1 0x0 DUP1 DUP6 DUP2 MSTORE PUSH1 0x20 ADD SWAP1 DUP2 MSTORE PUSH1 0x20 ADD PUSH1 0x0 KECCAK256 PUSH1 0x0 ADD PUSH1 0x0 DUP5 PUSH20 0xFFFFFFFFFFFFFFFFFFFFFFFFFFFFFFFFFFFFFFFF AND PUSH20 0xFFFFFFFFFFFFFFFFFFFFFFFFFFFFFFFFFFFFFFFF AND DUP2 MSTORE PUSH1 0x20 ADD SWAP1 DUP2 MSTORE PUSH1 0x20 ADD PUSH1 0x0 KECCAK256 PUSH1 0x0 PUSH2 0x100 EXP DUP2 SLOAD DUP2 PUSH1 0xFF MUL NOT AND SWAP1 DUP4 ISZERO ISZERO MUL OR SWAP1 SSTORE POP PUSH3 0xEF PUSH3 0x1C8 PUSH1 0x20 SHL PUSH1 0x20 SHR JUMP JUMPDEST PUSH20 0xFFFFFFFFFFFFFFFFFFFFFFFFFFFFFFFFFFFFFFFF AND DUP3 PUSH20 0xFFFFFFFFFFFFFFFFFFFFFFFFFFFFFFFFFFFFFFFF AND DUP5 PUSH32 0x2F8788117E7EFF1D82E926EC794901D17C78024A50270940304540A733656F0D PUSH1 0x40 MLOAD PUSH1 0x40 MLOAD DUP1 SWAP2 SUB SWAP1 LOG4 PUSH1 0x1 SWAP1 POP PUSH3 0x158 JUMP JUMPDEST PUSH1 0x0 SWAP1 POP JUMPDEST SWAP3 SWAP2 POP POP JUMP JUMPDEST PUSH1 0x0 DUP1 PUSH1 0x0 DUP5 DUP2 MSTORE PUSH1 0x20 ADD SWAP1 DUP2 MSTORE PUSH1 0x20 ADD PUSH1 0x0 KECCAK256 PUSH1 0x0 ADD PUSH1 0x0 DUP4 PUSH20 0xFFFFFFFFFFFFFFFFFFFFFFFFFFFFFFFFFFFFFFFF AND PUSH20 0xFFFFFFFFFFFFFFFFFFFFFFFFFFFFFFFFFFFFFFFF AND DUP2 MSTORE PUSH1 0x20 ADD SWAP1 DUP2 MSTORE PUSH1 0x20 ADD PUSH1 0x0 KECCAK256 PUSH1 0x0 SWAP1 SLOAD SWAP1 PUSH2 0x100 EXP SWAP1 DIV PUSH1 0xFF AND SWAP1 POP SWAP3 SWAP2 POP POP JUMP JUMPDEST PUSH1 0x0 CALLER SWAP1 POP SWAP1 JUMP JUMPDEST PUSH1 0x0 DUP1 REVERT JUMPDEST PUSH1 0x0 PUSH20 0xFFFFFFFFFFFFFFFFFFFFFFFFFFFFFFFFFFFFFFFF DUP3 AND SWAP1 POP SWAP2 SWAP1 POP JUMP JUMPDEST PUSH1 0x0 PUSH3 0x202 DUP3 PUSH3 0x1D5 JUMP JUMPDEST SWAP1 POP SWAP2 SWAP1 POP JUMP JUMPDEST PUSH3 0x214 DUP2 PUSH3 0x1F5 JUMP JUMPDEST DUP2 EQ PUSH3 0x220 JUMPI PUSH1 0x0 DUP1 REVERT JUMPDEST POP JUMP JUMPDEST PUSH1 0x0 DUP2 MLOAD SWAP1 POP PUSH3 0x234 DUP2 PUSH3 0x209 JUMP JUMPDEST SWAP3 SWAP2 POP POP JUMP JUMPDEST PUSH1 0x0 PUSH1 0x20 DUP3 DUP5 SUB SLT ISZERO PUSH3 0x253 JUMPI PUSH3 0x252 PUSH3 0x1D0 JUMP JUMPDEST JUMPDEST PUSH1 0x0 PUSH3 0x263 DUP5 DUP3 DUP6 ADD PUSH3 0x223 JUMP JUMPDEST SWAP2 POP POP SWAP3 SWAP2 POP POP JUMP JUMPDEST PUSH2 0x2439 DUP1 PUSH3 0x27C PUSH1 0x0 CODECOPY PUSH1 0x0 RETURN INVALID PUSH1 0x80 PUSH1 0x40 MSTORE CALLVALUE DUP1 ISZERO PUSH2 0x10 JUMPI PUSH1 0x0 DUP1 REVERT JUMPDEST POP PUSH1 0x4 CALLDATASIZE LT PUSH2 0x116 JUMPI PUSH1 0x0 CALLDATALOAD PUSH1 0xE0 SHR DUP1 PUSH4 0xA217FDDF GT PUSH2 0xA2 JUMPI DUP1 PUSH4 0xE50FE9B9 GT PUSH2 0x71 JUMPI DUP1 PUSH4 0xE50FE9B9 EQ PUSH2 0x31E JUMPI DUP1 PUSH4 0xE8676452 EQ PUSH2 0x34E JUMPI DUP1 PUSH4 0xEA14D9C1 EQ PUSH2 0x37E JUMPI DUP1 PUSH4 0xF5B541A6 EQ PUSH2 0x39A JUMPI DUP1 PUSH4 0xF851E311 EQ PUSH2 0x3B8 JUMPI PUSH2 0x116 JUMP JUMPDEST DUP1 PUSH4 0xA217FDDF EQ PUSH2 0x284 JUMPI DUP1 PUSH4 0xA419C5D4 EQ PUSH2 0x2A2 JUMPI DUP1 PUSH4 0xC13AEDA0 EQ PUSH2 0x2D2 JUMPI DUP1 PUSH4 0xD547741F EQ PUSH2 0x302 JUMPI PUSH2 0x116 JUMP JUMPDEST DUP1 PUSH4 0x36568ABE GT PUSH2 0xE9 JUMPI DUP1 PUSH4 0x36568ABE EQ PUSH2 0x1B5 JUMPI DUP1 PUSH4 0x47F9797B EQ PUSH2 0x1D1 JUMPI DUP1 PUSH4 0x65D8480B EQ PUSH2 0x1ED JUMPI DUP1 PUSH4 0x91D14854 EQ PUSH2 0x21D JUMPI DUP1 PUSH4 0xA13A240E EQ PUSH2 0x24D JUMPI PUSH2 0x116 JUMP JUMPDEST DUP1 PUSH4 0x1FFC9A7 EQ PUSH2 0x11B JUMPI DUP1 PUSH4 0x9E54B5B EQ PUSH2 0x14B JUMPI DUP1 PUSH4 0x248A9CA3 EQ PUSH2 0x169 JUMPI DUP1 PUSH4 0x2F2FF15D EQ PUSH2 0x199 JUMPI JUMPDEST PUSH1 0x0 DUP1 REVERT JUMPDEST PUSH2 0x135 PUSH1 0x4 DUP1 CALLDATASIZE SUB DUP2 ADD SWAP1 PUSH2 0x130 SWAP2 SWAP1 PUSH2 0x17CB JUMP JUMPDEST PUSH2 0x3D4 JUMP JUMPDEST PUSH1 0x40 MLOAD PUSH2 0x142 SWAP2 SWAP1 PUSH2 0x1813 JUMP JUMPDEST PUSH1 0x40 MLOAD DUP1 SWAP2 SUB SWAP1 RETURN JUMPDEST PUSH2 0x153 PUSH2 0x44E JUMP JUMPDEST PUSH1 0x40 MLOAD PUSH2 0x160 SWAP2 SWAP1 PUSH2 0x1847 JUMP JUMPDEST PUSH1 0x40 MLOAD DUP1 SWAP2 SUB SWAP1 RETURN JUMPDEST PUSH2 0x183 PUSH1 0x4 DUP1 CALLDATASIZE SUB DUP2 ADD SWAP1 PUSH2 0x17E SWAP2 SWAP1 PUSH2 0x1898 JUMP JUMPDEST PUSH2 0x455 JUMP JUMPDEST PUSH1 0x40 MLOAD PUSH2 0x190 SWAP2 SWAP1 PUSH2 0x18D4 JUMP JUMPDEST PUSH1 0x40 MLOAD DUP1 SWAP2 SUB SWAP1 RETURN JUMPDEST PUSH2 0x1B3 PUSH1 0x4 DUP1 CALLDATASIZE SUB DUP2 ADD SWAP1 PUSH2 0x1AE SWAP2 SWAP1 PUSH2 0x194D JUMP JUMPDEST PUSH2 0x474 JUMP JUMPDEST STOP JUMPDEST PUSH2 0x1CF PUSH1 0x4 DUP1 CALLDATASIZE SUB DUP2 ADD SWAP1 PUSH2 0x1CA SWAP2 SWAP1 PUSH2 0x194D JUMP JUMPDEST PUSH2 0x496 JUMP JUMPDEST STOP JUMPDEST PUSH2 0x1EB PUSH1 0x4 DUP1 CALLDATASIZE SUB DUP2 ADD SWAP1 PUSH2 0x1E6 SWAP2 SWAP1 PUSH2 0x19F2 JUMP JUMPDEST PUSH2 0x511 JUMP JUMPDEST STOP JUMPDEST PUSH2 0x207 PUSH1 0x4 DUP1 CALLDATASIZE SUB DUP2 ADD SWAP1 PUSH2 0x202 SWAP2 SWAP1 PUSH2 0x1A7E JUMP JUMPDEST PUSH2 0x7C7 JUMP JUMPDEST PUSH1 0x40 MLOAD PUSH2 0x214 SWAP2 SWAP1 PUSH2 0x18D4 JUMP JUMPDEST PUSH1 0x40 MLOAD DUP1 SWAP2 SUB SWAP1 RETURN JUMPDEST PUSH2 0x237 PUSH1 0x4 DUP1 CALLDATASIZE SUB DUP2 ADD SWAP1 PUSH2 0x232 SWAP2 SWAP1 PUSH2 0x194D JUMP JUMPDEST PUSH2 0xCD9 JUMP JUMPDEST PUSH1 0x40 MLOAD PUSH2 0x244 SWAP2 SWAP1 PUSH2 0x1813 JUMP JUMPDEST PUSH1 0x40 MLOAD DUP1 SWAP2 SUB SWAP1 RETURN JUMPDEST PUSH2 0x267 PUSH1 0x4 DUP1 CALLDATASIZE SUB DUP2 ADD SWAP1 PUSH2 0x262 SWAP2 SWAP1 PUSH2 0x1898 JUMP JUMPDEST PUSH2 0xD43 JUMP JUMPDEST PUSH1 0x40 MLOAD PUSH2 0x27B SWAP9 SWAP8 SWAP7 SWAP6 SWAP5 SWAP4 SWAP3 SWAP2 SWAP1 PUSH2 0x1B44 JUMP JUMPDEST PUSH1 0x40 MLOAD DUP1 SWAP2 SUB SWAP1 RETURN JUMPDEST PUSH2 0x28C PUSH2 0xDD8 JUMP JUMPDEST PUSH1 0x40 MLOAD PUSH2 0x299 SWAP2 SWAP1 PUSH2 0x18D4 JUMP JUMPDEST PUSH1 0x40 MLOAD DUP1 SWAP2 SUB SWAP1 RETURN JUMPDEST PUSH2 0x2BC PUSH1 0x4 DUP1 CALLDATASIZE SUB DUP2 ADD SWAP1 PUSH2 0x2B7 SWAP2 SWAP1 PUSH2 0x1A7E JUMP JUMPDEST PUSH2 0xDDF JUMP JUMPDEST PUSH1 0x40 MLOAD PUSH2 0x2C9 SWAP2 SWAP1 PUSH2 0x18D4 JUMP JUMPDEST PUSH1 0x40 MLOAD DUP1 SWAP2 SUB SWAP1 RETURN JUMPDEST PUSH2 0x2EC PUSH1 0x4 DUP1 CALLDATASIZE SUB DUP2 ADD SWAP1 PUSH2 0x2E7 SWAP2 SWAP1 PUSH2 0x1898 JUMP JUMPDEST PUSH2 0xE10 JUMP JUMPDEST PUSH1 0x40 MLOAD PUSH2 0x2F9 SWAP2 SWAP1 PUSH2 0x1CA0 JUMP JUMPDEST PUSH1 0x40 MLOAD DUP1 SWAP2 SUB SWAP1 RETURN JUMPDEST PUSH2 0x31C PUSH1 0x4 DUP1 CALLDATASIZE SUB DUP2 ADD SWAP1 PUSH2 0x317 SWAP2 SWAP1 PUSH2 0x194D JUMP JUMPDEST PUSH2 0xF57 JUMP JUMPDEST STOP JUMPDEST PUSH2 0x338 PUSH1 0x4 DUP1 CALLDATASIZE SUB DUP2 ADD SWAP1 PUSH2 0x333 SWAP2 SWAP1 PUSH2 0x1CBC JUMP JUMPDEST PUSH2 0xF79 JUMP JUMPDEST PUSH1 0x40 MLOAD PUSH2 0x345 SWAP2 SWAP1 PUSH2 0x1847 JUMP JUMPDEST PUSH1 0x40 MLOAD DUP1 SWAP2 SUB SWAP1 RETURN JUMPDEST PUSH2 0x368 PUSH1 0x4 DUP1 CALLDATASIZE SUB DUP2 ADD SWAP1 PUSH2 0x363 SWAP2 SWAP1 PUSH2 0x1CBC JUMP JUMPDEST PUSH2 0xF91 JUMP JUMPDEST PUSH1 0x40 MLOAD PUSH2 0x375 SWAP2 SWAP1 PUSH2 0x1D98 JUMP JUMPDEST PUSH1 0x40 MLOAD DUP1 SWAP2 SUB SWAP1 RETURN JUMPDEST PUSH2 0x398 PUSH1 0x4 DUP1 CALLDATASIZE SUB DUP2 ADD SWAP1 PUSH2 0x393 SWAP2 SWAP1 PUSH2 0x1DBA JUMP JUMPDEST PUSH2 0x1028 JUMP JUMPDEST STOP JUMPDEST PUSH2 0x3A2 PUSH2 0x115F JUMP JUMPDEST PUSH1 0x40 MLOAD PUSH2 0x3AF SWAP2 SWAP1 PUSH2 0x18D4 JUMP JUMPDEST PUSH1 0x40 MLOAD DUP1 SWAP2 SUB SWAP1 RETURN JUMPDEST PUSH2 0x3D2 PUSH1 0x4 DUP1 CALLDATASIZE SUB DUP2 ADD SWAP1 PUSH2 0x3CD SWAP2 SWAP1 PUSH2 0x1898 JUMP JUMPDEST PUSH2 0x1183 JUMP JUMPDEST STOP JUMPDEST PUSH1 0x0 PUSH32 0x7965DB0B00000000000000000000000000000000000000000000000000000000 PUSH28 0xFFFFFFFFFFFFFFFFFFFFFFFFFFFFFFFFFFFFFFFFFFFFFFFFFFFFFFFF NOT AND DUP3 PUSH28 0xFFFFFFFFFFFFFFFFFFFFFFFFFFFFFFFFFFFFFFFFFFFFFFFFFFFFFFFF NOT AND EQ DUP1 PUSH2 0x447 JUMPI POP PUSH2 0x446 DUP3 PUSH2 0x13DA JUMP JUMPDEST JUMPDEST SWAP1 POP SWAP2 SWAP1 POP JUMP JUMPDEST PUSH3 0x76A700 DUP2 JUMP JUMPDEST PUSH1 0x0 DUP1 PUSH1 0x0 DUP4 DUP2 MSTORE PUSH1 0x20 ADD SWAP1 DUP2 MSTORE PUSH1 0x20 ADD PUSH1 0x0 KECCAK256 PUSH1 0x1 ADD SLOAD SWAP1 POP SWAP2 SWAP1 POP JUMP JUMPDEST PUSH2 0x47D DUP3 PUSH2 0x455 JUMP JUMPDEST PUSH2 0x486 DUP2 PUSH2 0x1444 JUMP JUMPDEST PUSH2 0x490 DUP4 DUP4 PUSH2 0x1458 JUMP JUMPDEST POP POP POP POP JUMP JUMPDEST PUSH2 0x49E PUSH2 0x1549 JUMP JUMPDEST PUSH20 0xFFFFFFFFFFFFFFFFFFFFFFFFFFFFFFFFFFFFFFFF AND DUP2 PUSH20 0xFFFFFFFFFFFFFFFFFFFFFFFFFFFFFFFFFFFFFFFF AND EQ PUSH2 0x502 JUMPI PUSH1 0x40 MLOAD PUSH32 0x6697B23200000000000000000000000000000000000000000000000000000000 DUP2 MSTORE PUSH1 0x4 ADD PUSH1 0x40 MLOAD DUP1 SWAP2 SUB SWAP1 REVERT JUMPDEST PUSH2 0x50C DUP3 DUP3 PUSH2 0x1551 JUMP JUMPDEST POP POP POP JUMP JUMPDEST PUSH32 0x97667070C54EF182B0F5858B034BEAC1B6F3089AA2D3188BB1E8929F4FA9B929 PUSH2 0x53B DUP2 PUSH2 0x1444 JUMP JUMPDEST PUSH1 0x0 PUSH1 0x2 PUSH1 0x0 DUP7 DUP2 MSTORE PUSH1 0x20 ADD SWAP1 DUP2 MSTORE PUSH1 0x20 ADD PUSH1 0x0 KECCAK256 SWAP1 POP PUSH1 0x1 PUSH1 0x5 DUP2 GT ISZERO PUSH2 0x566 JUMPI PUSH2 0x565 PUSH2 0x1ACD JUMP JUMPDEST JUMPDEST DUP2 PUSH1 0x6 ADD PUSH1 0x0 SWAP1 SLOAD SWAP1 PUSH2 0x100 EXP SWAP1 DIV PUSH1 0xFF AND PUSH1 0x5 DUP2 GT ISZERO PUSH2 0x58A JUMPI PUSH2 0x589 PUSH2 0x1ACD JUMP JUMPDEST JUMPDEST EQ DUP1 PUSH2 0x5CB JUMPI POP PUSH1 0x3 PUSH1 0x5 DUP2 GT ISZERO PUSH2 0x5A5 JUMPI PUSH2 0x5A4 PUSH2 0x1ACD JUMP JUMPDEST JUMPDEST DUP2 PUSH1 0x6 ADD PUSH1 0x0 SWAP1 SLOAD SWAP1 PUSH2 0x100 EXP SWAP1 DIV PUSH1 0xFF AND PUSH1 0x5 DUP2 GT ISZERO PUSH2 0x5C9 JUMPI PUSH2 0x5C8 PUSH2 0x1ACD JUMP JUMPDEST JUMPDEST EQ JUMPDEST PUSH2 0x60A JUMPI PUSH1 0x40 MLOAD PUSH32 0x8C379A000000000000000000000000000000000000000000000000000000000 DUP2 MSTORE PUSH1 0x4 ADD PUSH2 0x601 SWAP1 PUSH2 0x1E6A JUMP JUMPDEST PUSH1 0x40 MLOAD DUP1 SWAP2 SUB SWAP1 REVERT JUMPDEST PUSH1 0x0 DUP2 PUSH1 0x1 ADD PUSH1 0x0 SWAP1 SLOAD SWAP1 PUSH2 0x100 EXP SWAP1 DIV PUSH20 0xFFFFFFFFFFFFFFFFFFFFFFFFFFFFFFFFFFFFFFFF AND SWAP1 POP DUP1 PUSH20 0xFFFFFFFFFFFFFFFFFFFFFFFFFFFFFFFFFFFFFFFF AND PUSH4 0xA9059CBB DUP4 PUSH1 0x0 ADD PUSH1 0x0 SWAP1 SLOAD SWAP1 PUSH2 0x100 EXP SWAP1 DIV PUSH20 0xFFFFFFFFFFFFFFFFFFFFFFFFFFFFFFFFFFFFFFFF AND DUP5 PUSH1 0x2 ADD SLOAD PUSH1 0x40 MLOAD DUP4 PUSH4 0xFFFFFFFF AND PUSH1 0xE0 SHL DUP2 MSTORE PUSH1 0x4 ADD PUSH2 0x696 SWAP3 SWAP2 SWAP1 PUSH2 0x1E8A JUMP JUMPDEST PUSH1 0x20 PUSH1 0x40 MLOAD DUP1 DUP4 SUB DUP2 PUSH1 0x0 DUP8 GAS CALL ISZERO DUP1 ISZERO PUSH2 0x6B5 JUMPI RETURNDATASIZE PUSH1 0x0 DUP1 RETURNDATACOPY RETURNDATASIZE PUSH1 0x0 REVERT JUMPDEST POP POP POP POP PUSH1 0x40 MLOAD RETURNDATASIZE PUSH1 0x1F NOT PUSH1 0x1F DUP3 ADD AND DUP3 ADD DUP1 PUSH1 0x40 MSTORE POP DUP2 ADD SWAP1 PUSH2 0x6D9 SWAP2 SWAP1 PUSH2 0x1EDF JUMP JUMPDEST POP PUSH1 0x5 DUP3 PUSH1 0x6 ADD PUSH1 0x0 PUSH2 0x100 EXP DUP2 SLOAD DUP2 PUSH1 0xFF MUL NOT AND SWAP1 DUP4 PUSH1 0x5 DUP2 GT ISZERO PUSH2 0x702 JUMPI PUSH2 0x701 PUSH2 0x1ACD JUMP JUMPDEST JUMPDEST MUL OR SWAP1 SSTORE POP DUP2 PUSH1 0x2 ADD SLOAD PUSH1 0x3 PUSH1 0x0 DUP5 PUSH1 0x1 ADD PUSH1 0x0 SWAP1 SLOAD SWAP1 PUSH2 0x100 EXP SWAP1 DIV PUSH20 0xFFFFFFFFFFFFFFFFFFFFFFFFFFFFFFFFFFFFFFFF AND PUSH20 0xFFFFFFFFFFFFFFFFFFFFFFFFFFFFFFFFFFFFFFFF AND PUSH20 0xFFFFFFFFFFFFFFFFFFFFFFFFFFFFFFFFFFFFFFFF AND DUP2 MSTORE PUSH1 0x20 ADD SWAP1 DUP2 MSTORE PUSH1 0x20 ADD PUSH1 0x0 KECCAK256 PUSH1 0x0 DUP3 DUP3 SLOAD PUSH2 0x77E SWAP2 SWAP1 PUSH2 0x1F3B JUMP JUMPDEST SWAP3 POP POP DUP2 SWAP1 SSTORE POP DUP6 PUSH32 0xBC90AF0705199B504F71EC2FDF21AE338D4F05BB824EBB538A4B69D9EBB608B0 DUP7 DUP7 PUSH1 0x40 MLOAD PUSH2 0x7B7 SWAP3 SWAP2 SWAP1 PUSH2 0x1FBC JUMP JUMPDEST PUSH1 0x40 MLOAD DUP1 SWAP2 SUB SWAP1 LOG2 POP POP POP POP POP POP JUMP JUMPDEST PUSH1 0x0 PUSH2 0x7D1 PUSH2 0x1643 JUMP JUMPDEST PUSH1 0x0 DUP3 GT PUSH2 0x814 JUMPI PUSH1 0x40 MLOAD PUSH32 0x8C379A000000000000000000000000000000000000000000000000000000000 DUP2 MSTORE PUSH1 0x4 ADD PUSH2 0x80B SWAP1 PUSH2 0x202C JUMP JUMPDEST PUSH1 0x40 MLOAD DUP1 SWAP2 SUB SWAP1 REVERT JUMPDEST PUSH1 0x0 DUP4 SWAP1 POP DUP3 DUP2 PUSH20 0xFFFFFFFFFFFFFFFFFFFFFFFFFFFFFFFFFFFFFFFF AND PUSH4 0x70A08231 CALLER PUSH1 0x40 MLOAD DUP3 PUSH4 0xFFFFFFFF AND PUSH1 0xE0 SHL DUP2 MSTORE PUSH1 0x4 ADD PUSH2 0x853 SWAP2 SWAP1 PUSH2 0x204C JUMP JUMPDEST PUSH1 0x20 PUSH1 0x40 MLOAD DUP1 DUP4 SUB DUP2 DUP7 GAS STATICCALL ISZERO DUP1 ISZERO PUSH2 0x870 JUMPI RETURNDATASIZE PUSH1 0x0 DUP1 RETURNDATACOPY RETURNDATASIZE PUSH1 0x0 REVERT JUMPDEST POP POP POP POP PUSH1 0x40 MLOAD RETURNDATASIZE PUSH1 0x1F NOT PUSH1 0x1F DUP3 ADD AND DUP3 ADD DUP1 PUSH1 0x40 MSTORE POP DUP2 ADD SWAP1 PUSH2 0x894 SWAP2 SWAP1 PUSH2 0x207C JUMP JUMPDEST LT ISZERO PUSH2 0x8D5 JUMPI PUSH1 0x40 MLOAD PUSH32 0x8C379A000000000000000000000000000000000000000000000000000000000 DUP2 MSTORE PUSH1 0x4 ADD PUSH2 0x8CC SWAP1 PUSH2 0x20F5 JUMP JUMPDEST PUSH1 0x40 MLOAD DUP1 SWAP2 SUB SWAP1 REVERT JUMPDEST PUSH1 0x0 CALLER DUP6 DUP6 TIMESTAMP PUSH1 0x40 MLOAD PUSH1 0x20 ADD PUSH2 0x8EE SWAP5 SWAP4 SWAP3 SWAP2 SWAP1 PUSH2 0x217E JUMP JUMPDEST PUSH1 0x40 MLOAD PUSH1 0x20 DUP2 DUP4 SUB SUB DUP2 MSTORE SWAP1 PUSH1 0x40 MSTORE DUP1 MLOAD SWAP1 PUSH1 0x20 ADD KECCAK256 SWAP1 POP PUSH1 0x0 DUP3 PUSH20 0xFFFFFFFFFFFFFFFFFFFFFFFFFFFFFFFFFFFFFFFF AND PUSH4 0xA036F25B PUSH1 0x40 MLOAD DUP2 PUSH4 0xFFFFFFFF AND PUSH1 0xE0 SHL DUP2 MSTORE PUSH1 0x4 ADD PUSH1 0x20 PUSH1 0x40 MLOAD DUP1 DUP4 SUB DUP2 DUP7 GAS STATICCALL ISZERO DUP1 ISZERO PUSH2 0x953 JUMPI RETURNDATASIZE PUSH1 0x0 DUP1 RETURNDATACOPY RETURNDATASIZE PUSH1 0x0 REVERT JUMPDEST POP POP POP POP PUSH1 0x40 MLOAD RETURNDATASIZE PUSH1 0x1F NOT PUSH1 0x1F DUP3 ADD AND DUP3 ADD DUP1 PUSH1 0x40 MSTORE POP DUP2 ADD SWAP1 PUSH2 0x977 SWAP2 SWAP1 PUSH2 0x207C JUMP JUMPDEST SWAP1 POP PUSH1 0x0 PUSH8 0xDE0B6B3A7640000 DUP7 DUP4 PUSH2 0x990 SWAP2 SWAP1 PUSH2 0x21CC JUMP JUMPDEST PUSH2 0x99A SWAP2 SWAP1 PUSH2 0x223D JUMP JUMPDEST SWAP1 POP DUP4 PUSH20 0xFFFFFFFFFFFFFFFFFFFFFFFFFFFFFFFFFFFFFFFF AND PUSH4 0x23B872DD CALLER ADDRESS DUP10 PUSH1 0x40 MLOAD DUP5 PUSH4 0xFFFFFFFF AND PUSH1 0xE0 SHL DUP2 MSTORE PUSH1 0x4 ADD PUSH2 0x9D9 SWAP4 SWAP3 SWAP2 SWAP1 PUSH2 0x226E JUMP JUMPDEST PUSH1 0x20 PUSH1 0x40 MLOAD DUP1 DUP4 SUB DUP2 PUSH1 0x0 DUP8 GAS CALL ISZERO DUP1 ISZERO PUSH2 0x9F8 JUMPI RETURNDATASIZE PUSH1 0x0 DUP1 RETURNDATACOPY RETURNDATASIZE PUSH1 0x0 REVERT JUMPDEST POP POP POP POP PUSH1 0x40 MLOAD RETURNDATASIZE PUSH1 0x1F NOT PUSH1 0x1F DUP3 ADD AND DUP3 ADD DUP1 PUSH1 0x40 MSTORE POP DUP2 ADD SWAP1 PUSH2 0xA1C SWAP2 SWAP1 PUSH2 0x1EDF JUMP JUMPDEST POP PUSH1 0x40 MLOAD DUP1 PUSH2 0x100 ADD PUSH1 0x40 MSTORE DUP1 CALLER PUSH20 0xFFFFFFFFFFFFFFFFFFFFFFFFFFFFFFFFFFFFFFFF AND DUP2 MSTORE PUSH1 0x20 ADD DUP9 PUSH20 0xFFFFFFFFFFFFFFFFFFFFFFFFFFFFFFFFFFFFFFFF AND DUP2 MSTORE PUSH1 0x20 ADD DUP8 DUP2 MSTORE PUSH1 0x20 ADD DUP3 DUP2 MSTORE PUSH1 0x20 ADD TIMESTAMP DUP2 MSTORE PUSH1 0x20 ADD PUSH1 0x0 DUP2 MSTORE PUSH1 0x20 ADD PUSH1 0x1 PUSH1 0x5 DUP2 GT ISZERO PUSH2 0xA8E JUMPI PUSH2 0xA8D PUSH2 0x1ACD JUMP JUMPDEST JUMPDEST DUP2 MSTORE PUSH1 0x20 ADD PUSH1 0x0 DUP1 SHL DUP2 MSTORE POP PUSH1 0x2 PUSH1 0x0 DUP6 DUP2 MSTORE PUSH1 0x20 ADD SWAP1 DUP2 MSTORE PUSH1 0x20 ADD PUSH1 0x0 KECCAK256 PUSH1 0x0 DUP3 ADD MLOAD DUP2 PUSH1 0x0 ADD PUSH1 0x0 PUSH2 0x100 EXP DUP2 SLOAD DUP2 PUSH20 0xFFFFFFFFFFFFFFFFFFFFFFFFFFFFFFFFFFFFFFFF MUL NOT AND SWAP1 DUP4 PUSH20 0xFFFFFFFFFFFFFFFFFFFFFFFFFFFFFFFFFFFFFFFF AND MUL OR SWAP1 SSTORE POP PUSH1 0x20 DUP3 ADD MLOAD DUP2 PUSH1 0x1 ADD PUSH1 0x0 PUSH2 0x100 EXP DUP2 SLOAD DUP2 PUSH20 0xFFFFFFFFFFFFFFFFFFFFFFFFFFFFFFFFFFFFFFFF MUL NOT AND SWAP1 DUP4 PUSH20 0xFFFFFFFFFFFFFFFFFFFFFFFFFFFFFFFFFFFFFFFF AND MUL OR SWAP1 SSTORE POP PUSH1 0x40 DUP3 ADD MLOAD DUP2 PUSH1 0x2 ADD SSTORE PUSH1 0x60 DUP3 ADD MLOAD DUP2 PUSH1 0x3 ADD SSTORE PUSH1 0x80 DUP3 ADD MLOAD DUP2 PUSH1 0x4 ADD SSTORE PUSH1 0xA0 DUP3 ADD MLOAD DUP2 PUSH1 0x5 ADD SSTORE PUSH1 0xC0 DUP3 ADD MLOAD DUP2 PUSH1 0x6 ADD PUSH1 0x0 PUSH2 0x100 EXP DUP2 SLOAD DUP2 PUSH1 0xFF MUL NOT AND SWAP1 DUP4 PUSH1 0x5 DUP2 GT ISZERO PUSH2 0xB8E JUMPI PUSH2 0xB8D PUSH2 0x1ACD JUMP JUMPDEST JUMPDEST MUL OR SWAP1 SSTORE POP PUSH1 0xE0 DUP3 ADD MLOAD DUP2 PUSH1 0x7 ADD SSTORE SWAP1 POP POP DUP6 PUSH1 0x3 PUSH1 0x0 DUP10 PUSH20 0xFFFFFFFFFFFFFFFFFFFFFFFFFFFFFFFFFFFFFFFF AND PUSH20 0xFFFFFFFFFFFFFFFFFFFFFFFFFFFFFFFFFFFFFFFF AND DUP2 MSTORE PUSH1 0x20 ADD SWAP1 DUP2 MSTORE PUSH1 0x20 ADD PUSH1 0x0 KECCAK256 PUSH1 0x0 DUP3 DUP3 SLOAD PUSH2 0xBEF SWAP2 SWAP1 PUSH2 0x22A5 JUMP JUMPDEST SWAP3 POP POP DUP2 SWAP1 SSTORE POP PUSH1 0x4 PUSH1 0x0 CALLER PUSH20 0xFFFFFFFFFFFFFFFFFFFFFFFFFFFFFFFFFFFFFFFF AND PUSH20 0xFFFFFFFFFFFFFFFFFFFFFFFFFFFFFFFFFFFFFFFF AND DUP2 MSTORE PUSH1 0x20 ADD SWAP1 DUP2 MSTORE PUSH1 0x20 ADD PUSH1 0x0 KECCAK256 DUP4 SWAP1 DUP1 PUSH1 0x1 DUP2 SLOAD ADD DUP1 DUP3 SSTORE DUP1 SWAP2 POP POP PUSH1 0x1 SWAP1 SUB SWAP1 PUSH1 0x0 MSTORE PUSH1 0x20 PUSH1 0x0 KECCAK256 ADD PUSH1 0x0 SWAP1 SWAP2 SWAP1 SWAP2 SWAP1 SWAP2 POP SSTORE DUP7 PUSH20 0xFFFFFFFFFFFFFFFFFFFFFFFFFFFFFFFFFFFFFFFF AND CALLER PUSH20 0xFFFFFFFFFFFFFFFFFFFFFFFFFFFFFFFFFFFFFFFF AND DUP5 PUSH32 0x35591FEB7A211340AFBF42B35E4A1DE470B4A9115DA0EADC1B01906055959FCE DUP10 TIMESTAMP PUSH1 0x40 MLOAD PUSH2 0xCBC SWAP3 SWAP2 SWAP1 PUSH2 0x22D9 JUMP JUMPDEST PUSH1 0x40 MLOAD DUP1 SWAP2 SUB SWAP1 LOG4 DUP3 SWAP5 POP POP POP POP POP PUSH2 0xCD3 PUSH2 0x1689 JUMP JUMPDEST SWAP3 SWAP2 POP POP JUMP JUMPDEST PUSH1 0x0 DUP1 PUSH1 0x0 DUP5 DUP2 MSTORE PUSH1 0x20 ADD SWAP1 DUP2 MSTORE PUSH1 0x20 ADD PUSH1 0x0 KECCAK256 PUSH1 0x0 ADD PUSH1 0x0 DUP4 PUSH20 0xFFFFFFFFFFFFFFFFFFFFFFFFFFFFFFFFFFFFFFFF AND PUSH20 0xFFFFFFFFFFFFFFFFFFFFFFFFFFFFFFFFFFFFFFFF AND DUP2 MSTORE PUSH1 0x20 ADD SWAP1 DUP2 MSTORE PUSH1 0x20 ADD PUSH1 0x0 KECCAK256 PUSH1 0x0 SWAP1 SLOAD SWAP1 PUSH2 0x100 EXP SWAP1 DIV PUSH1 0xFF AND SWAP1 POP SWAP3 SWAP2 POP POP JUMP JUMPDEST PUSH1 0x2 PUSH1 0x20 MSTORE DUP1 PUSH1 0x0 MSTORE PUSH1 0x40 PUSH1 0x0 KECCAK256 PUSH1 0x0 SWAP2 POP SWAP1 POP DUP1 PUSH1 0x0 ADD PUSH1 0x0 SWAP1 SLOAD SWAP1 PUSH2 0x100 EXP SWAP1 DIV PUSH20 0xFFFFFFFFFFFFFFFFFFFFFFFFFFFFFFFFFFFFFFFF AND SWAP1 DUP1 PUSH1 0x1 ADD PUSH1 0x0 SWAP1 SLOAD SWAP1 PUSH2 0x100 EXP SWAP1 DIV PUSH20 0xFFFFFFFFFFFFFFFFFFFFFFFFFFFFFFFFFFFFFFFF AND SWAP1 DUP1 PUSH1 0x2 ADD SLOAD SWAP1 DUP1 PUSH1 0x3 ADD SLOAD SWAP1 DUP1 PUSH1 0x4 ADD SLOAD SWAP1 DUP1 PUSH1 0x5 ADD SLOAD SWAP1 DUP1 PUSH1 0x6 ADD PUSH1 0x0 SWAP1 SLOAD SWAP1 PUSH2 0x100 EXP SWAP1 DIV PUSH1 0xFF AND SWAP1 DUP1 PUSH1 0x7 ADD SLOAD SWAP1 POP DUP9 JUMP JUMPDEST PUSH1 0x0 DUP1 SHL DUP2 JUMP JUMPDEST PUSH1 0x4 PUSH1 0x20 MSTORE DUP2 PUSH1 0x0 MSTORE PUSH1 0x40 PUSH1 0x0 KECCAK256 DUP2 DUP2 SLOAD DUP2 LT PUSH2 0xDFB JUMPI PUSH1 0x0 DUP1 REVERT JUMPDEST SWAP1 PUSH1 0x0 MSTORE PUSH1 0x20 PUSH1 0x0 KECCAK256 ADD PUSH1 0x0 SWAP2 POP SWAP2 POP POP SLOAD DUP2 JUMP JUMPDEST PUSH2 0xE18 PUSH2 0x16E3 JUMP JUMPDEST PUSH1 0x2 PUSH1 0x0 DUP4 DUP2 MSTORE PUSH1 0x20 ADD SWAP1 DUP2 MSTORE PUSH1 0x20 ADD PUSH1 0x0 KECCAK256 PUSH1 0x40 MLOAD DUP1 PUSH2 0x100 ADD PUSH1 0x40 MSTORE SWAP1 DUP2 PUSH1 0x0 DUP3 ADD PUSH1 0x0 SWAP1 SLOAD SWAP1 PUSH2 0x100 EXP SWAP1 DIV PUSH20 0xFFFFFFFFFFFFFFFFFFFFFFFFFFFFFFFFFFFFFFFF AND PUSH20 0xFFFFFFFFFFFFFFFFFFFFFFFFFFFFFFFFFFFFFFFF AND PUSH20 0xFFFFFFFFFFFFFFFFFFFFFFFFFFFFFFFFFFFFFFFF AND DUP2 MSTORE PUSH1 0x20 ADD PUSH1 0x1 DUP3 ADD PUSH1 0x0 SWAP1 SLOAD SWAP1 PUSH2 0x100 EXP SWAP1 DIV PUSH20 0xFFFFFFFFFFFFFFFFFFFFFFFFFFFFFFFFFFFFFFFF AND PUSH20 0xFFFFFFFFFFFFFFFFFFFFFFFFFFFFFFFFFFFFFFFF AND PUSH20 0xFFFFFFFFFFFFFFFFFFFFFFFFFFFFFFFFFFFFFFFF AND DUP2 MSTORE PUSH1 0x20 ADD PUSH1 0x2 DUP3 ADD SLOAD DUP2 MSTORE PUSH1 0x20 ADD PUSH1 0x3 DUP3 ADD SLOAD DUP2 MSTORE PUSH1 0x20 ADD PUSH1 0x4 DUP3 ADD SLOAD DUP2 MSTORE PUSH1 0x20 ADD PUSH1 0x5 DUP3 ADD SLOAD DUP2 MSTORE PUSH1 0x20 ADD PUSH1 0x6 DUP3 ADD PUSH1 0x0 SWAP1 SLOAD SWAP1 PUSH2 0x100 EXP SWAP1 DIV PUSH1 0xFF AND PUSH1 0x5 DUP2 GT ISZERO PUSH2 0xF30 JUMPI PUSH2 0xF2F PUSH2 0x1ACD JUMP JUMPDEST JUMPDEST PUSH1 0x5 DUP2 GT ISZERO PUSH2 0xF42 JUMPI PUSH2 0xF41 PUSH2 0x1ACD JUMP JUMPDEST JUMPDEST DUP2 MSTORE PUSH1 0x20 ADD PUSH1 0x7 DUP3 ADD SLOAD DUP2 MSTORE POP POP SWAP1 POP SWAP2 SWAP1 POP JUMP JUMPDEST PUSH2 0xF60 DUP3 PUSH2 0x455 JUMP JUMPDEST PUSH2 0xF69 DUP2 PUSH2 0x1444 JUMP JUMPDEST PUSH2 0xF73 DUP4 DUP4 PUSH2 0x1551 JUMP JUMPDEST POP POP POP POP JUMP JUMPDEST PUSH1 0x3 PUSH1 0x20 MSTORE DUP1 PUSH1 0x0 MSTORE PUSH1 0x40 PUSH1 0x0 KECCAK256 PUSH1 0x0 SWAP2 POP SWAP1 POP SLOAD DUP2 JUMP JUMPDEST PUSH1 0x60 PUSH1 0x4 PUSH1 0x0 DUP4 PUSH20 0xFFFFFFFFFFFFFFFFFFFFFFFFFFFFFFFFFFFFFFFF AND PUSH20 0xFFFFFFFFFFFFFFFFFFFFFFFFFFFFFFFFFFFFFFFF AND DUP2 MSTORE PUSH1 0x20 ADD SWAP1 DUP2 MSTORE PUSH1 0x20 ADD PUSH1 0x0 KECCAK256 DUP1 SLOAD DUP1 PUSH1 0x20 MUL PUSH1 0x20 ADD PUSH1 0x40 MLOAD SWAP1 DUP2 ADD PUSH1 0x40 MSTORE DUP1 SWAP3 SWAP2 SWAP1 DUP2 DUP2 MSTORE PUSH1 0x20 ADD DUP3 DUP1 SLOAD DUP1 ISZERO PUSH2 0x101C JUMPI PUSH1 0x20 MUL DUP3 ADD SWAP2 SWAP1 PUSH1 0x0 MSTORE PUSH1 0x20 PUSH1 0x0 KECCAK256 SWAP1 JUMPDEST DUP2 SLOAD DUP2 MSTORE PUSH1 0x20 ADD SWAP1 PUSH1 0x1 ADD SWAP1 DUP1 DUP4 GT PUSH2 0x1008 JUMPI JUMPDEST POP POP POP POP POP SWAP1 POP SWAP2 SWAP1 POP JUMP JUMPDEST PUSH32 0x97667070C54EF182B0F5858B034BEAC1B6F3089AA2D3188BB1E8929F4FA9B929 PUSH2 0x1052 DUP2 PUSH2 0x1444 JUMP JUMPDEST PUSH1 0x0 PUSH1 0x2 PUSH1 0x0 DUP7 DUP2 MSTORE PUSH1 0x20 ADD SWAP1 DUP2 MSTORE PUSH1 0x20 ADD PUSH1 0x0 KECCAK256 SWAP1 POP PUSH1 0x1 PUSH1 0x5 DUP2 GT ISZERO PUSH2 0x107D JUMPI PUSH2 0x107C PUSH2 0x1ACD JUMP JUMPDEST JUMPDEST DUP2 PUSH1 0x6 ADD PUSH1 0x0 SWAP1 SLOAD SWAP1 PUSH2 0x100 EXP SWAP1 DIV PUSH1 0xFF AND PUSH1 0x5 DUP2 GT ISZERO PUSH2 0x10A1 JUMPI PUSH2 0x10A0 PUSH2 0x1ACD JUMP JUMPDEST JUMPDEST EQ PUSH2 0x10E1 JUMPI PUSH1 0x40 MLOAD PUSH32 0x8C379A000000000000000000000000000000000000000000000000000000000 DUP2 MSTORE PUSH1 0x4 ADD PUSH2 0x10D8 SWAP1 PUSH2 0x234E JUMP JUMPDEST PUSH1 0x40 MLOAD DUP1 SWAP2 SUB SWAP1 REVERT JUMPDEST PUSH1 0x3 DUP2 PUSH1 0x6 ADD PUSH1 0x0 PUSH2 0x100 EXP DUP2 SLOAD DUP2 PUSH1 0xFF MUL NOT AND SWAP1 DUP4 PUSH1 0x5 DUP2 GT ISZERO PUSH2 0x1109 JUMPI PUSH2 0x1108 PUSH2 0x1ACD JUMP JUMPDEST JUMPDEST MUL OR SWAP1 SSTORE POP DUP4 DUP2 PUSH1 0x3 ADD DUP2 SWAP1 SSTORE POP DUP3 DUP2 PUSH1 0x7 ADD DUP2 SWAP1 SSTORE POP DUP5 PUSH32 0x339FE98C8B5995A3FFA8FF948EE7B91749CAE84B024B60C2ADD34F2915583063 DUP6 PUSH1 0x40 MLOAD PUSH2 0x1150 SWAP2 SWAP1 PUSH2 0x1847 JUMP JUMPDEST PUSH1 0x40 MLOAD DUP1 SWAP2 SUB SWAP1 LOG2 POP POP POP POP POP JUMP JUMPDEST PUSH32 0x97667070C54EF182B0F5858B034BEAC1B6F3089AA2D3188BB1E8929F4FA9B929 DUP2 JUMP JUMPDEST PUSH32 0x97667070C54EF182B0F5858B034BEAC1B6F3089AA2D3188BB1E8929F4FA9B929 PUSH2 0x11AD DUP2 PUSH2 0x1444 JUMP JUMPDEST PUSH2 0x11B5 PUSH2 0x1643 JUMP JUMPDEST PUSH1 0x0 PUSH1 0x2 PUSH1 0x0 DUP5 DUP2 MSTORE PUSH1 0x20 ADD SWAP1 DUP2 MSTORE PUSH1 0x20 ADD PUSH1 0x0 KECCAK256 SWAP1 POP PUSH1 0x3 PUSH1 0x5 DUP2 GT ISZERO PUSH2 0x11E0 JUMPI PUSH2 0x11DF PUSH2 0x1ACD JUMP JUMPDEST JUMPDEST DUP2 PUSH1 0x6 ADD PUSH1 0x0 SWAP1 SLOAD SWAP1 PUSH2 0x100 EXP SWAP1 DIV PUSH1 0xFF AND PUSH1 0x5 DUP2 GT ISZERO PUSH2 0x1204 JUMPI PUSH2 0x1203 PUSH2 0x1ACD JUMP JUMPDEST JUMPDEST EQ PUSH2 0x1244 JUMPI PUSH1 0x40 MLOAD PUSH32 0x8C379A000000000000000000000000000000000000000000000000000000000 DUP2 MSTORE PUSH1 0x4 ADD PUSH2 0x123B SWAP1 PUSH2 0x23BA JUMP JUMPDEST PUSH1 0x40 MLOAD DUP1 SWAP2 SUB SWAP1 REVERT JUMPDEST PUSH1 0x0 DUP2 PUSH1 0x1 ADD PUSH1 0x0 SWAP1 SLOAD SWAP1 PUSH2 0x100 EXP SWAP1 DIV PUSH20 0xFFFFFFFFFFFFFFFFFFFFFFFFFFFFFFFFFFFFFFFF AND SWAP1 POP DUP1 PUSH20 0xFFFFFFFFFFFFFFFFFFFFFFFFFFFFFFFFFFFFFFFF AND PUSH4 0x42966C68 DUP4 PUSH1 0x2 ADD SLOAD PUSH1 0x40 MLOAD DUP3 PUSH4 0xFFFFFFFF AND PUSH1 0xE0 SHL DUP2 MSTORE PUSH1 0x4 ADD PUSH2 0x12AA SWAP2 SWAP1 PUSH2 0x1847 JUMP JUMPDEST PUSH1 0x0 PUSH1 0x40 MLOAD DUP1 DUP4 SUB DUP2 PUSH1 0x0 DUP8 DUP1 EXTCODESIZE ISZERO DUP1 ISZERO PUSH2 0x12C4 JUMPI PUSH1 0x0 DUP1 REVERT JUMPDEST POP GAS CALL ISZERO DUP1 ISZERO PUSH2 0x12D8 JUMPI RETURNDATASIZE PUSH1 0x0 DUP1 RETURNDATACOPY RETURNDATASIZE PUSH1 0x0 REVERT JUMPDEST POP POP POP POP PUSH1 0x4 DUP3 PUSH1 0x6 ADD PUSH1 0x0 PUSH2 0x100 EXP DUP2 SLOAD DUP2 PUSH1 0xFF MUL NOT AND SWAP1 DUP4 PUSH1 0x5 DUP2 GT ISZERO PUSH2 0x1304 JUMPI PUSH2 0x1303 PUSH2 0x1ACD JUMP JUMPDEST JUMPDEST MUL OR SWAP1 SSTORE POP TIMESTAMP DUP3 PUSH1 0x5 ADD DUP2 SWAP1 SSTORE POP DUP2 PUSH1 0x2 ADD SLOAD PUSH1 0x3 PUSH1 0x0 DUP5 PUSH1 0x1 ADD PUSH1 0x0 SWAP1 SLOAD SWAP1 PUSH2 0x100 EXP SWAP1 DIV PUSH20 0xFFFFFFFFFFFFFFFFFFFFFFFFFFFFFFFFFFFFFFFF AND PUSH20 0xFFFFFFFFFFFFFFFFFFFFFFFFFFFFFFFFFFFFFFFF AND PUSH20 0xFFFFFFFFFFFFFFFFFFFFFFFFFFFFFFFFFFFFFFFF AND DUP2 MSTORE PUSH1 0x20 ADD SWAP1 DUP2 MSTORE PUSH1 0x20 ADD PUSH1 0x0 KECCAK256 PUSH1 0x0 DUP3 DUP3 SLOAD PUSH2 0x1389 SWAP2 SWAP1 PUSH2 0x1F3B JUMP JUMPDEST SWAP3 POP POP DUP2 SWAP1 SSTORE POP DUP4 PUSH32 0x9870A680E28967764A8D3EC5D5014E20AED6CF87B0F1A64606A69E2E1621C71B DUP4 PUSH1 0x3 ADD SLOAD PUSH1 0x40 MLOAD PUSH2 0x13C4 SWAP2 SWAP1 PUSH2 0x1847 JUMP JUMPDEST PUSH1 0x40 MLOAD DUP1 SWAP2 SUB SWAP1 LOG2 POP POP PUSH2 0x13D6 PUSH2 0x1689 JUMP JUMPDEST POP POP JUMP JUMPDEST PUSH1 0x0 PUSH32 0x1FFC9A700000000000000000000000000000000000000000000000000000000 PUSH28 0xFFFFFFFFFFFFFFFFFFFFFFFFFFFFFFFFFFFFFFFFFFFFFFFFFFFFFFFF NOT AND DUP3 PUSH28 0xFFFFFFFFFFFFFFFFFFFFFFFFFFFFFFFFFFFFFFFFFFFFFFFFFFFFFFFF NOT AND EQ SWAP1 POP SWAP2 SWAP1 POP JUMP JUMPDEST PUSH2 0x1455 DUP2 PUSH2 0x1450 PUSH2 0x1549 JUMP JUMPDEST PUSH2 0x1692 JUMP JUMPDEST POP JUMP JUMPDEST PUSH1 0x0 PUSH2 0x1464 DUP4 DUP4 PUSH2 0xCD9 JUMP JUMPDEST PUSH2 0x153E JUMPI PUSH1 0x1 PUSH1 0x0 DUP1 DUP6 DUP2 MSTORE PUSH1 0x20 ADD SWAP1 DUP2 MSTORE PUSH1 0x20 ADD PUSH1 0x0 KECCAK256 PUSH1 0x0 ADD PUSH1 0x0 DUP5 PUSH20 0xFFFFFFFFFFFFFFFFFFFFFFFFFFFFFFFFFFFFFFFF AND PUSH20 0xFFFFFFFFFFFFFFFFFFFFFFFFFFFFFFFFFFFFFFFF AND DUP2 MSTORE PUSH1 0x20 ADD SWAP1 DUP2 MSTORE PUSH1 0x20 ADD PUSH1 0x0 KECCAK256 PUSH1 0x0 PUSH2 0x100 EXP DUP2 SLOAD DUP2 PUSH1 0xFF MUL NOT AND SWAP1 DUP4 ISZERO ISZERO MUL OR SWAP1 SSTORE POP PUSH2 0x14DB PUSH2 0x1549 JUMP JUMPDEST PUSH20 0xFFFFFFFFFFFFFFFFFFFFFFFFFFFFFFFFFFFFFFFF AND DUP3 PUSH20 0xFFFFFFFFFFFFFFFFFFFFFFFFFFFFFFFFFFFFFFFF AND DUP5 PUSH32 0x2F8788117E7EFF1D82E926EC794901D17C78024A50270940304540A733656F0D PUSH1 0x40 MLOAD PUSH1 0x40 MLOAD DUP1 SWAP2 SUB SWAP1 LOG4 PUSH1 0x1 SWAP1 POP PUSH2 0x1543 JUMP JUMPDEST PUSH1 0x0 SWAP1 POP JUMPDEST SWAP3 SWAP2 POP POP JUMP JUMPDEST PUSH1 0x0 CALLER SWAP1 POP SWAP1 JUMP JUMPDEST PUSH1 0x0 PUSH2 0x155D DUP4 DUP4 PUSH2 0xCD9 JUMP JUMPDEST ISZERO PUSH2 0x1638 JUMPI PUSH1 0x0 DUP1 PUSH1 0x0 DUP6 DUP2 MSTORE PUSH1 0x20 ADD SWAP1 DUP2 MSTORE PUSH1 0x20 ADD PUSH1 0x0 KECCAK256 PUSH1 0x0 ADD PUSH1 0x0 DUP5 PUSH20 0xFFFFFFFFFFFFFFFFFFFFFFFFFFFFFFFFFFFFFFFF AND PUSH20 0xFFFFFFFFFFFFFFFFFFFFFFFFFFFFFFFFFFFFFFFF AND DUP2 MSTORE PUSH1 0x20 ADD SWAP1 DUP2 MSTORE PUSH1 0x20 ADD PUSH1 0x0 KECCAK256 PUSH1 0x0 PUSH2 0x100 EXP DUP2 SLOAD DUP2 PUSH1 0xFF MUL NOT AND SWAP1 DUP4 ISZERO ISZERO MUL OR SWAP1 SSTORE POP PUSH2 0x15D5 PUSH2 0x1549 JUMP JUMPDEST PUSH20 0xFFFFFFFFFFFFFFFFFFFFFFFFFFFFFFFFFFFFFFFF AND DUP3 PUSH20 0xFFFFFFFFFFFFFFFFFFFFFFFFFFFFFFFFFFFFFFFF AND DUP5 PUSH32 0xF6391F5C32D9C69D2A47EA670B442974B53935D1EDC7FD64EB21E047A839171B PUSH1 0x40 MLOAD PUSH1 0x40 MLOAD DUP1 SWAP2 SUB SWAP1 LOG4 PUSH1 0x1 SWAP1 POP PUSH2 0x163D JUMP JUMPDEST PUSH1 0x0 SWAP1 POP JUMPDEST SWAP3 SWAP2 POP POP JUMP JUMPDEST PUSH1 0x2 PUSH1 0x1 SLOAD SUB PUSH2 0x167F JUMPI PUSH1 0x40 MLOAD PUSH32 0x3EE5AEB500000000000000000000000000000000000000000000000000000000 DUP2 MSTORE PUSH1 0x4 ADD PUSH1 0x40 MLOAD DUP1 SWAP2 SUB SWAP1 REVERT JUMPDEST PUSH1 0x2 PUSH1 0x1 DUP2 SWAP1 SSTORE POP JUMP JUMPDEST PUSH1 0x1 DUP1 DUP2 SWAP1 SSTORE POP JUMP JUMPDEST PUSH2 0x169C DUP3 DUP3 PUSH2 0xCD9 JUMP JUMPDEST PUSH2 0x16DF JUMPI DUP1 DUP3 PUSH1 0x40 MLOAD PUSH32 0xE2517D3F00000000000000000000000000000000000000000000000000000000 DUP2 MSTORE PUSH1 0x4 ADD PUSH2 0x16D6 SWAP3 SWAP2 SWAP1 PUSH2 0x23DA JUMP JUMPDEST PUSH1 0x40 MLOAD DUP1 SWAP2 SUB SWAP1 REVERT JUMPDEST POP POP JUMP JUMPDEST PUSH1 0x40 MLOAD DUP1 PUSH2 0x100 ADD PUSH1 0x40 MSTORE DUP1 PUSH1 0x0 PUSH20 0xFFFFFFFFFFFFFFFFFFFFFFFFFFFFFFFFFFFFFFFF AND DUP2 MSTORE PUSH1 0x20 ADD PUSH1 0x0 PUSH20 0xFFFFFFFFFFFFFFFFFFFFFFFFFFFFFFFFFFFFFFFF AND DUP2 MSTORE PUSH1 0x20 ADD PUSH1 0x0 DUP2 MSTORE PUSH1 0x20 ADD PUSH1 0x0 DUP2 MSTORE PUSH1 0x20 ADD PUSH1 0x0 DUP2 MSTORE PUSH1 0x20 ADD PUSH1 0x0 DUP2 MSTORE PUSH1 0x20 ADD PUSH1 0x0 PUSH1 0x5 DUP2 GT ISZERO PUSH2 0x1759 JUMPI PUSH2 0x1758 PUSH2 0x1ACD JUMP JUMPDEST JUMPDEST DUP2 MSTORE PUSH1 0x20 ADD PUSH1 0x0 DUP1 NOT AND DUP2 MSTORE POP SWAP1 JUMP JUMPDEST PUSH1 0x0 DUP1 REVERT JUMPDEST PUSH1 0x0 DUP1 REVERT JUMPDEST PUSH1 0x0 PUSH32 0xFFFFFFFF00000000000000000000000000000000000000000000000000000000 DUP3 AND SWAP1 POP SWAP2 SWAP1 POP JUMP JUMPDEST PUSH2 0x17A8 DUP2 PUSH2 0x1773 JUMP JUMPDEST DUP2 EQ PUSH2 0x17B3 JUMPI PUSH1 0x0 DUP1 REVERT JUMPDEST POP JUMP JUMPDEST PUSH1 0x0 DUP2 CALLDATALOAD SWAP1 POP PUSH2 0x17C5 DUP2 PUSH2 0x179F JUMP JUMPDEST SWAP3 SWAP2 POP POP JUMP JUMPDEST PUSH1 0x0 PUSH1 0x20 DUP3 DUP5 SUB SLT ISZERO PUSH2 0x17E1 JUMPI PUSH2 0x17E0 PUSH2 0x1769 JUMP JUMPDEST JUMPDEST PUSH1 0x0 PUSH2 0x17EF DUP5 DUP3 DUP6 ADD PUSH2 0x17B6 JUMP JUMPDEST SWAP2 POP POP SWAP3 SWAP2 POP POP JUMP JUMPDEST PUSH1 0x0 DUP2 ISZERO ISZERO SWAP1 POP SWAP2 SWAP1 POP JUMP JUMPDEST PUSH2 0x180D DUP2 PUSH2 0x17F8 JUMP JUMPDEST DUP3 MSTORE POP POP JUMP JUMPDEST PUSH1 0x0 PUSH1 0x20 DUP3 ADD SWAP1 POP PUSH2 0x1828 PUSH1 0x0 DUP4 ADD DUP5 PUSH2 0x1804 JUMP JUMPDEST SWAP3 SWAP2 POP POP JUMP JUMPDEST PUSH1 0x0 DUP2 SWAP1 POP SWAP2 SWAP1 POP JUMP JUMPDEST PUSH2 0x1841 DUP2 PUSH2 0x182E JUMP JUMPDEST DUP3 MSTORE POP POP JUMP JUMPDEST PUSH1 0x0 PUSH1 0x20 DUP3 ADD SWAP1 POP PUSH2 0x185C PUSH1 0x0 DUP4 ADD DUP5 PUSH2 0x1838 JUMP JUMPDEST SWAP3 SWAP2 POP POP JUMP JUMPDEST PUSH1 0x0 DUP2 SWAP1 POP SWAP2 SWAP1 POP JUMP JUMPDEST PUSH2 0x1875 DUP2 PUSH2 0x1862 JUMP JUMPDEST DUP2 EQ PUSH2 0x1880 JUMPI PUSH1 0x0 DUP1 REVERT JUMPDEST POP JUMP JUMPDEST PUSH1 0x0 DUP2 CALLDATALOAD SWAP1 POP PUSH2 0x1892 DUP2 PUSH2 0x186C JUMP JUMPDEST SWAP3 SWAP2 POP POP JUMP JUMPDEST PUSH1 0x0 PUSH1 0x20 DUP3 DUP5 SUB SLT ISZERO PUSH2 0x18AE JUMPI PUSH2 0x18AD PUSH2 0x1769 JUMP JUMPDEST JUMPDEST PUSH1 0x0 PUSH2 0x18BC DUP5 DUP3 DUP6 ADD PUSH2 0x1883 JUMP JUMPDEST SWAP2 POP POP SWAP3 SWAP2 POP POP JUMP JUMPDEST PUSH2 0x18CE DUP2 PUSH2 0x1862 JUMP JUMPDEST DUP3 MSTORE POP POP JUMP JUMPDEST PUSH1 0x0 PUSH1 0x20 DUP3 ADD SWAP1 POP PUSH2 0x18E9 PUSH1 0x0 DUP4 ADD DUP5 PUSH2 0x18C5 JUMP JUMPDEST SWAP3 SWAP2 POP POP JUMP JUMPDEST PUSH1 0x0 PUSH20 0xFFFFFFFFFFFFFFFFFFFFFFFFFFFFFFFFFFFFFFFF DUP3 AND SWAP1 POP SWAP2 SWAP1 POP JUMP JUMPDEST PUSH1 0x0 PUSH2 0x191A DUP3 PUSH2 0x18EF JUMP JUMPDEST SWAP1 POP SWAP2 SWAP1 POP JUMP JUMPDEST PUSH2 0x192A DUP2 PUSH2 0x190F JUMP JUMPDEST DUP2 EQ PUSH2 0x1935 JUMPI PUSH1 0x0 DUP1 REVERT JUMPDEST POP JUMP JUMPDEST PUSH1 0x0 DUP2 CALLDATALOAD SWAP1 POP PUSH2 0x1947 DUP2 PUSH2 0x1921 JUMP JUMPDEST SWAP3 SWAP2 POP POP JUMP JUMPDEST PUSH1 0x0 DUP1 PUSH1 0x40 DUP4 DUP6 SUB SLT ISZERO PUSH2 0x1964 JUMPI PUSH2 0x1963 PUSH2 0x1769 JUMP JUMPDEST JUMPDEST PUSH1 0x0 PUSH2 0x1972 DUP6 DUP3 DUP7 ADD PUSH2 0x1883 JUMP JUMPDEST SWAP3 POP POP PUSH1 0x20 PUSH2 0x1983 DUP6 DUP3 DUP7 ADD PUSH2 0x1938 JUMP JUMPDEST SWAP2 POP POP SWAP3 POP SWAP3 SWAP1 POP JUMP JUMPDEST PUSH1 0x0 DUP1 REVERT JUMPDEST PUSH1 0x0 DUP1 REVERT JUMPDEST PUSH1 0x0 DUP1 REVERT JUMPDEST PUSH1 0x0 DUP1 DUP4 PUSH1 0x1F DUP5 ADD SLT PUSH2 0x19B2 JUMPI PUSH2 0x19B1 PUSH2 0x198D JUMP JUMPDEST JUMPDEST DUP3 CALLDATALOAD SWAP1 POP PUSH8 0xFFFFFFFFFFFFFFFF DUP2 GT ISZERO PUSH2 0x19CF JUMPI PUSH2 0x19CE PUSH2 0x1992 JUMP JUMPDEST JUMPDEST PUSH1 0x20 DUP4 ADD SWAP2 POP DUP4 PUSH1 0x1 DUP3 MUL DUP4 ADD GT ISZERO PUSH2 0x19EB JUMPI PUSH2 0x19EA PUSH2 0x1997 JUMP JUMPDEST JUMPDEST SWAP3 POP SWAP3 SWAP1 POP JUMP JUMPDEST PUSH1 0x0 DUP1 PUSH1 0x0 PUSH1 0x40 DUP5 DUP7 SUB SLT ISZERO PUSH2 0x1A0B JUMPI PUSH2 0x1A0A PUSH2 0x1769 JUMP JUMPDEST JUMPDEST PUSH1 0x0 PUSH2 0x1A19 DUP7 DUP3 DUP8 ADD PUSH2 0x1883 JUMP JUMPDEST SWAP4 POP POP PUSH1 0x20 DUP5 ADD CALLDATALOAD PUSH8 0xFFFFFFFFFFFFFFFF DUP2 GT ISZERO PUSH2 0x1A3A JUMPI PUSH2 0x1A39 PUSH2 0x176E JUMP JUMPDEST JUMPDEST PUSH2 0x1A46 DUP7 DUP3 DUP8 ADD PUSH2 0x199C JUMP JUMPDEST SWAP3 POP SWAP3 POP POP SWAP3 POP SWAP3 POP SWAP3 JUMP JUMPDEST PUSH2 0x1A5B DUP2 PUSH2 0x182E JUMP JUMPDEST DUP2 EQ PUSH2 0x1A66 JUMPI PUSH1 0x0 DUP1 REVERT JUMPDEST POP JUMP JUMPDEST PUSH1 0x0 DUP2 CALLDATALOAD SWAP1 POP PUSH2 0x1A78 DUP2 PUSH2 0x1A52 JUMP JUMPDEST SWAP3 SWAP2 POP POP JUMP JUMPDEST PUSH1 0x0 DUP1 PUSH1 0x40 DUP4 DUP6 SUB SLT ISZERO PUSH2 0x1A95 JUMPI PUSH2 0x1A94 PUSH2 0x1769 JUMP JUMPDEST JUMPDEST PUSH1 0x0 PUSH2 0x1AA3 DUP6 DUP3 DUP7 ADD PUSH2 0x1938 JUMP JUMPDEST SWAP3 POP POP PUSH1 0x20 PUSH2 0x1AB4 DUP6 DUP3 DUP7 ADD PUSH2 0x1A69 JUMP JUMPDEST SWAP2 POP POP SWAP3 POP SWAP3 SWAP1 POP JUMP JUMPDEST PUSH2 0x1AC7 DUP2 PUSH2 0x190F JUMP JUMPDEST DUP3 MSTORE POP POP JUMP JUMPDEST PUSH32 0x4E487B7100000000000000000000000000000000000000000000000000000000 PUSH1 0x0 MSTORE PUSH1 0x21 PUSH1 0x4 MSTORE PUSH1 0x24 PUSH1 0x0 REVERT JUMPDEST PUSH1 0x6 DUP2 LT PUSH2 0x1B0D JUMPI PUSH2 0x1B0C PUSH2 0x1ACD JUMP JUMPDEST JUMPDEST POP JUMP JUMPDEST PUSH1 0x0 DUP2 SWAP1 POP PUSH2 0x1B1E DUP3 PUSH2 0x1AFC JUMP JUMPDEST SWAP2 SWAP1 POP JUMP JUMPDEST PUSH1 0x0 PUSH2 0x1B2E DUP3 PUSH2 0x1B10 JUMP JUMPDEST SWAP1 POP SWAP2 SWAP1 POP JUMP JUMPDEST PUSH2 0x1B3E DUP2 PUSH2 0x1B23 JUMP JUMPDEST DUP3 MSTORE POP POP JUMP JUMPDEST PUSH1 0x0 PUSH2 0x100 DUP3 ADD SWAP1 POP PUSH2 0x1B5A PUSH1 0x0 DUP4 ADD DUP12 PUSH2 0x1ABE JUMP JUMPDEST PUSH2 0x1B67 PUSH1 0x20 DUP4 ADD DUP11 PUSH2 0x1ABE JUMP JUMPDEST PUSH2 0x1B74 PUSH1 0x40 DUP4 ADD DUP10 PUSH2 0x1838 JUMP JUMPDEST PUSH2 0x1B81 PUSH1 0x60 DUP4 ADD DUP9 PUSH2 0x1838 JUMP JUMPDEST PUSH2 0x1B8E PUSH1 0x80 DUP4 ADD DUP8 PUSH2 0x1838 JUMP JUMPDEST PUSH2 0x1B9B PUSH1 0xA0 DUP4 ADD DUP7 PUSH2 0x1838 JUMP JUMPDEST PUSH2 0x1BA8 PUSH1 0xC0 DUP4 ADD DUP6 PUSH2 0x1B35 JUMP JUMPDEST PUSH2 0x1BB5 PUSH1 0xE0 DUP4 ADD DUP5 PUSH2 0x18C5 JUMP JUMPDEST SWAP10 SWAP9 POP POP POP POP POP POP POP POP POP JUMP JUMPDEST PUSH2 0x1BCB DUP2 PUSH2 0x190F JUMP JUMPDEST DUP3 MSTORE POP POP JUMP JUMPDEST PUSH2 0x1BDA DUP2 PUSH2 0x182E JUMP JUMPDEST DUP3 MSTORE POP POP JUMP JUMPDEST PUSH2 0x1BE9 DUP2 PUSH2 0x1B23 JUMP JUMPDEST DUP3 MSTORE POP POP JUMP JUMPDEST PUSH2 0x1BF8 DUP2 PUSH2 0x1862 JUMP JUMPDEST DUP3 MSTORE POP POP JUMP JUMPDEST PUSH2 0x100 DUP3 ADD PUSH1 0x0 DUP3 ADD MLOAD PUSH2 0x1C15 PUSH1 0x0 DUP6 ADD DUP3 PUSH2 0x1BC2 JUMP JUMPDEST POP PUSH1 0x20 DUP3 ADD MLOAD PUSH2 0x1C28 PUSH1 0x20 DUP6 ADD DUP3 PUSH2 0x1BC2 JUMP JUMPDEST POP PUSH1 0x40 DUP3 ADD MLOAD PUSH2 0x1C3B PUSH1 0x40 DUP6 ADD DUP3 PUSH2 0x1BD1 JUMP JUMPDEST POP PUSH1 0x60 DUP3 ADD MLOAD PUSH2 0x1C4E PUSH1 0x60 DUP6 ADD DUP3 PUSH2 0x1BD1 JUMP JUMPDEST POP PUSH1 0x80 DUP3 ADD MLOAD PUSH2 0x1C61 PUSH1 0x80 DUP6 ADD DUP3 PUSH2 0x1BD1 JUMP JUMPDEST POP PUSH1 0xA0 DUP3 ADD MLOAD PUSH2 0x1C74 PUSH1 0xA0 DUP6 ADD DUP3 PUSH2 0x1BD1 JUMP JUMPDEST POP PUSH1 0xC0 DUP3 ADD MLOAD PUSH2 0x1C87 PUSH1 0xC0 DUP6 ADD DUP3 PUSH2 0x1BE0 JUMP JUMPDEST POP PUSH1 0xE0 DUP3 ADD MLOAD PUSH2 0x1C9A PUSH1 0xE0 DUP6 ADD DUP3 PUSH2 0x1BEF JUMP JUMPDEST POP POP POP POP JUMP JUMPDEST PUSH1 0x0 PUSH2 0x100 DUP3 ADD SWAP1 POP PUSH2 0x1CB6 PUSH1 0x0 DUP4 ADD DUP5 PUSH2 0x1BFE JUMP JUMPDEST SWAP3 SWAP2 POP POP JUMP JUMPDEST PUSH1 0x0 PUSH1 0x20 DUP3 DUP5 SUB SLT ISZERO PUSH2 0x1CD2 JUMPI PUSH2 0x1CD1 PUSH2 0x1769 JUMP JUMPDEST JUMPDEST PUSH1 0x0 PUSH2 0x1CE0 DUP5 DUP3 DUP6 ADD PUSH2 0x1938 JUMP JUMPDEST SWAP2 POP POP SWAP3 SWAP2 POP POP JUMP JUMPDEST PUSH1 0x0 DUP2 MLOAD SWAP1 POP SWAP2 SWAP1 POP JUMP JUMPDEST PUSH1 0x0 DUP3 DUP3 MSTORE PUSH1 0x20 DUP3 ADD SWAP1 POP SWAP3 SWAP2 POP POP JUMP JUMPDEST PUSH1 0x0 DUP2 SWAP1 POP PUSH1 0x20 DUP3 ADD SWAP1 POP SWAP2 SWAP1 POP JUMP JUMPDEST PUSH1 0x0 PUSH2 0x1D21 DUP4 DUP4 PUSH2 0x1BEF JUMP JUMPDEST PUSH1 0x20 DUP4 ADD SWAP1 POP SWAP3 SWAP2 POP POP JUMP JUMPDEST PUSH1 0x0 PUSH1 0x20 DUP3 ADD SWAP1 POP SWAP2 SWAP1 POP JUMP JUMPDEST PUSH1 0x0 PUSH2 0x1D45 DUP3 PUSH2 0x1CE9 JUMP JUMPDEST PUSH2 0x1D4F DUP2 DUP6 PUSH2 0x1CF4 JUMP JUMPDEST SWAP4 POP PUSH2 0x1D5A DUP4 PUSH2 0x1D05 JUMP JUMPDEST DUP1 PUSH1 0x0 JUMPDEST DUP4 DUP2 LT ISZERO PUSH2 0x1D8B JUMPI DUP2 MLOAD PUSH2 0x1D72 DUP9 DUP3 PUSH2 0x1D15 JUMP JUMPDEST SWAP8 POP PUSH2 0x1D7D DUP4 PUSH2 0x1D2D JUMP JUMPDEST SWAP3 POP POP PUSH1 0x1 DUP2 ADD SWAP1 POP PUSH2 0x1D5E JUMP JUMPDEST POP DUP6 SWAP4 POP POP POP POP SWAP3 SWAP2 POP POP JUMP JUMPDEST PUSH1 0x0 PUSH1 0x20 DUP3 ADD SWAP1 POP DUP2 DUP2 SUB PUSH1 0x0 DUP4 ADD MSTORE PUSH2 0x1DB2 DUP2 DUP5 PUSH2 0x1D3A JUMP JUMPDEST SWAP1 POP SWAP3 SWAP2 POP POP JUMP JUMPDEST PUSH1 0x0 DUP1 PUSH1 0x0 PUSH1 0x60 DUP5 DUP7 SUB SLT ISZERO PUSH2 0x1DD3 JUMPI PUSH2 0x1DD2 PUSH2 0x1769 JUMP JUMPDEST JUMPDEST PUSH1 0x0 PUSH2 0x1DE1 DUP7 DUP3 DUP8 ADD PUSH2 0x1883 JUMP JUMPDEST SWAP4 POP POP PUSH1 0x20 PUSH2 0x1DF2 DUP7 DUP3 DUP8 ADD PUSH2 0x1A69 JUMP JUMPDEST SWAP3 POP POP PUSH1 0x40 PUSH2 0x1E03 DUP7 DUP3 DUP8 ADD PUSH2 0x1883 JUMP JUMPDEST SWAP2 POP POP SWAP3 POP SWAP3 POP SWAP3 JUMP JUMPDEST PUSH1 0x0 DUP3 DUP3 MSTORE PUSH1 0x20 DUP3 ADD SWAP1 POP SWAP3 SWAP2 POP POP JUMP JUMPDEST PUSH32 0x43616E6E6F742063616E63656C00000000000000000000000000000000000000 PUSH1 0x0 DUP3 ADD MSTORE POP JUMP JUMPDEST PUSH1 0x0 PUSH2 0x1E54 PUSH1 0xD DUP4 PUSH2 0x1E0D JUMP JUMPDEST SWAP2 POP PUSH2 0x1E5F DUP3 PUSH2 0x1E1E JUMP JUMPDEST PUSH1 0x20 DUP3 ADD SWAP1 POP SWAP2 SWAP1 POP JUMP JUMPDEST PUSH1 0x0 PUSH1 0x20 DUP3 ADD SWAP1 POP DUP2 DUP2 SUB PUSH1 0x0 DUP4 ADD MSTORE PUSH2 0x1E83 DUP2 PUSH2 0x1E47 JUMP JUMPDEST SWAP1 POP SWAP2 SWAP1 POP JUMP JUMPDEST PUSH1 0x0 PUSH1 0x40 DUP3 ADD SWAP1 POP PUSH2 0x1E9F PUSH1 0x0 DUP4 ADD DUP6 PUSH2 0x1ABE JUMP JUMPDEST PUSH2 0x1EAC PUSH1 0x20 DUP4 ADD DUP5 PUSH2 0x1838 JUMP JUMPDEST SWAP4 SWAP3 POP POP POP JUMP JUMPDEST PUSH2 0x1EBC DUP2 PUSH2 0x17F8 JUMP JUMPDEST DUP2 EQ PUSH2 0x1EC7 JUMPI PUSH1 0x0 DUP1 REVERT JUMPDEST POP JUMP JUMPDEST PUSH1 0x0 DUP2 MLOAD SWAP1 POP PUSH2 0x1ED9 DUP2 PUSH2 0x1EB3 JUMP JUMPDEST SWAP3 SWAP2 POP POP JUMP JUMPDEST PUSH1 0x0 PUSH1 0x20 DUP3 DUP5 SUB SLT ISZERO PUSH2 0x1EF5 JUMPI PUSH2 0x1EF4 PUSH2 0x1769 JUMP JUMPDEST JUMPDEST PUSH1 0x0 PUSH2 0x1F03 DUP5 DUP3 DUP6 ADD PUSH2 0x1ECA JUMP JUMPDEST SWAP2 POP POP SWAP3 SWAP2 POP POP JUMP JUMPDEST PUSH32 0x4E487B7100000000000000000000000000000000000000000000000000000000 PUSH1 0x0 MSTORE PUSH1 0x11 PUSH1 0x4 MSTORE PUSH1 0x24 PUSH1 0x0 REVERT JUMPDEST PUSH1 0x0 PUSH2 0x1F46 DUP3 PUSH2 0x182E JUMP JUMPDEST SWAP2 POP PUSH2 0x1F51 DUP4 PUSH2 0x182E JUMP JUMPDEST SWAP3 POP DUP3 DUP3 SUB SWAP1 POP DUP2 DUP2 GT ISZERO PUSH2 0x1F69 JUMPI PUSH2 0x1F68 PUSH2 0x1F0C JUMP JUMPDEST JUMPDEST SWAP3 SWAP2 POP POP JUMP JUMPDEST DUP3 DUP2 DUP4 CALLDATACOPY PUSH1 0x0 DUP4 DUP4 ADD MSTORE POP POP POP JUMP JUMPDEST PUSH1 0x0 PUSH1 0x1F NOT PUSH1 0x1F DUP4 ADD AND SWAP1 POP SWAP2 SWAP1 POP JUMP JUMPDEST PUSH1 0x0 PUSH2 0x1F9B DUP4 DUP6 PUSH2 0x1E0D JUMP JUMPDEST SWAP4 POP PUSH2 0x1FA8 DUP4 DUP6 DUP5 PUSH2 0x1F6F JUMP JUMPDEST PUSH2 0x1FB1 DUP4 PUSH2 0x1F7E JUMP JUMPDEST DUP5 ADD SWAP1 POP SWAP4 SWAP3 POP POP POP JUMP JUMPDEST PUSH1 0x0 PUSH1 0x20 DUP3 ADD SWAP1 POP DUP2 DUP2 SUB PUSH1 0x0 DUP4 ADD MSTORE PUSH2 0x1FD7 DUP2 DUP5 DUP7 PUSH2 0x1F8F JUMP JUMPDEST SWAP1 POP SWAP4 SWAP3 POP POP POP JUMP JUMPDEST PUSH32 0x496E76616C696420616D6F756E74000000000000000000000000000000000000 PUSH1 0x0 DUP3 ADD MSTORE POP JUMP JUMPDEST PUSH1 0x0 PUSH2 0x2016 PUSH1 0xE DUP4 PUSH2 0x1E0D JUMP JUMPDEST SWAP2 POP PUSH2 0x2021 DUP3 PUSH2 0x1FE0 JUMP JUMPDEST PUSH1 0x20 DUP3 ADD SWAP1 POP SWAP2 SWAP1 POP JUMP JUMPDEST PUSH1 0x0 PUSH1 0x20 DUP3 ADD SWAP1 POP DUP2 DUP2 SUB PUSH1 0x0 DUP4 ADD MSTORE PUSH2 0x2045 DUP2 PUSH2 0x2009 JUMP JUMPDEST SWAP1 POP SWAP2 SWAP1 POP JUMP JUMPDEST PUSH1 0x0 PUSH1 0x20 DUP3 ADD SWAP1 POP PUSH2 0x2061 PUSH1 0x0 DUP4 ADD DUP5 PUSH2 0x1ABE JUMP JUMPDEST SWAP3 SWAP2 POP POP JUMP JUMPDEST PUSH1 0x0 DUP2 MLOAD SWAP1 POP PUSH2 0x2076 DUP2 PUSH2 0x1A52 JUMP JUMPDEST SWAP3 SWAP2 POP POP JUMP JUMPDEST PUSH1 0x0 PUSH1 0x20 DUP3 DUP5 SUB SLT ISZERO PUSH2 0x2092 JUMPI PUSH2 0x2091 PUSH2 0x1769 JUMP JUMPDEST JUMPDEST PUSH1 0x0 PUSH2 0x20A0 DUP5 DUP3 DUP6 ADD PUSH2 0x2067 JUMP JUMPDEST SWAP2 POP POP SWAP3 SWAP2 POP POP JUMP JUMPDEST PUSH32 0x496E73756666696369656E742062616C616E6365000000000000000000000000 PUSH1 0x0 DUP3 ADD MSTORE POP JUMP JUMPDEST PUSH1 0x0 PUSH2 0x20DF PUSH1 0x14 DUP4 PUSH2 0x1E0D JUMP JUMPDEST SWAP2 POP PUSH2 0x20EA DUP3 PUSH2 0x20A9 JUMP JUMPDEST PUSH1 0x20 DUP3 ADD SWAP1 POP SWAP2 SWAP1 POP JUMP JUMPDEST PUSH1 0x0 PUSH1 0x20 DUP3 ADD SWAP1 POP DUP2 DUP2 SUB PUSH1 0x0 DUP4 ADD MSTORE PUSH2 0x210E DUP2 PUSH2 0x20D2 JUMP JUMPDEST SWAP1 POP SWAP2 SWAP1 POP JUMP JUMPDEST PUSH1 0x0 DUP2 PUSH1 0x60 SHL SWAP1 POP SWAP2 SWAP1 POP JUMP JUMPDEST PUSH1 0x0 PUSH2 0x212D DUP3 PUSH2 0x2115 JUMP JUMPDEST SWAP1 POP SWAP2 SWAP1 POP JUMP JUMPDEST PUSH1 0x0 PUSH2 0x213F DUP3 PUSH2 0x2122 JUMP JUMPDEST SWAP1 POP SWAP2 SWAP1 POP JUMP JUMPDEST PUSH2 0x2157 PUSH2 0x2152 DUP3 PUSH2 0x190F JUMP JUMPDEST PUSH2 0x2134 JUMP JUMPDEST DUP3 MSTORE POP POP JUMP JUMPDEST PUSH1 0x0 DUP2 SWAP1 POP SWAP2 SWAP1 POP JUMP JUMPDEST PUSH2 0x2178 PUSH2 0x2173 DUP3 PUSH2 0x182E JUMP JUMPDEST PUSH2 0x215D JUMP JUMPDEST DUP3 MSTORE POP POP JUMP JUMPDEST PUSH1 0x0 PUSH2 0x218A DUP3 DUP8 PUSH2 0x2146 JUMP JUMPDEST PUSH1 0x14 DUP3 ADD SWAP2 POP PUSH2 0x219A DUP3 DUP7 PUSH2 0x2146 JUMP JUMPDEST PUSH1 0x14 DUP3 ADD SWAP2 POP PUSH2 0x21AA DUP3 DUP6 PUSH2 0x2167 JUMP JUMPDEST PUSH1 0x20 DUP3 ADD SWAP2 POP PUSH2 0x21BA DUP3 DUP5 PUSH2 0x2167 JUMP JUMPDEST PUSH1 0x20 DUP3 ADD SWAP2 POP DUP2 SWAP1 POP SWAP6 SWAP5 POP POP POP POP POP JUMP JUMPDEST PUSH1 0x0 PUSH2 0x21D7 DUP3 PUSH2 0x182E JUMP JUMPDEST SWAP2 POP PUSH2 0x21E2 DUP4 PUSH2 0x182E JUMP JUMPDEST SWAP3 POP DUP3 DUP3 MUL PUSH2 0x21F0 DUP2 PUSH2 0x182E JUMP JUMPDEST SWAP2 POP DUP3 DUP3 DIV DUP5 EQ DUP4 ISZERO OR PUSH2 0x2207 JUMPI PUSH2 0x2206 PUSH2 0x1F0C JUMP JUMPDEST JUMPDEST POP SWAP3 SWAP2 POP POP JUMP JUMPDEST PUSH32 0x4E487B7100000000000000000000000000000000000000000000000000000000 PUSH1 0x0 MSTORE PUSH1 0x12 PUSH1 0x4 MSTORE PUSH1 0x24 PUSH1 0x0 REVERT JUMPDEST PUSH1 0x0 PUSH2 0x2248 DUP3 PUSH2 0x182E JUMP JUMPDEST SWAP2 POP PUSH2 0x2253 DUP4 PUSH2 0x182E JUMP JUMPDEST SWAP3 POP DUP3 PUSH2 0x2263 JUMPI PUSH2 0x2262 PUSH2 0x220E JUMP JUMPDEST JUMPDEST DUP3 DUP3 DIV SWAP1 POP SWAP3 SWAP2 POP POP JUMP JUMPDEST PUSH1 0x0 PUSH1 0x60 DUP3 ADD SWAP1 POP PUSH2 0x2283 PUSH1 0x0 DUP4 ADD DUP7 PUSH2 0x1ABE JUMP JUMPDEST PUSH2 0x2290 PUSH1 0x20 DUP4 ADD DUP6 PUSH2 0x1ABE JUMP JUMPDEST PUSH2 0x229D PUSH1 0x40 DUP4 ADD DUP5 PUSH2 0x1838 JUMP JUMPDEST SWAP5 SWAP4 POP POP POP POP JUMP JUMPDEST PUSH1 0x0 PUSH2 0x22B0 DUP3 PUSH2 0x182E JUMP JUMPDEST SWAP2 POP PUSH2 0x22BB DUP4 PUSH2 0x182E JUMP JUMPDEST SWAP3 POP DUP3 DUP3 ADD SWAP1 POP DUP1 DUP3 GT ISZERO PUSH2 0x22D3 JUMPI PUSH2 0x22D2 PUSH2 0x1F0C JUMP JUMPDEST JUMPDEST SWAP3 SWAP2 POP POP JUMP JUMPDEST PUSH1 0x0 PUSH1 0x40 DUP3 ADD SWAP1 POP PUSH2 0x22EE PUSH1 0x0 DUP4 ADD DUP6 PUSH2 0x1838 JUMP JUMPDEST PUSH2 0x22FB PUSH1 0x20 DUP4 ADD DUP5 PUSH2 0x1838 JUMP JUMPDEST SWAP4 SWAP3 POP POP POP JUMP JUMPDEST PUSH32 0x496E76616C696420737461747573000000000000000000000000000000000000 PUSH1 0x0 DUP3 ADD MSTORE POP JUMP JUMPDEST PUSH1 0x0 PUSH2 0x2338 PUSH1 0xE DUP4 PUSH2 0x1E0D JUMP JUMPDEST SWAP2 POP PUSH2 0x2343 DUP3 PUSH2 0x2302 JUMP JUMPDEST PUSH1 0x20 DUP3 ADD SWAP1 POP SWAP2 SWAP1 POP JUMP JUMPDEST PUSH1 0x0 PUSH1 0x20 DUP3 ADD SWAP1 POP DUP2 DUP2 SUB PUSH1 0x0 DUP4 ADD MSTORE PUSH2 0x2367 DUP2 PUSH2 0x232B JUMP JUMPDEST SWAP1 POP SWAP2 SWAP1 POP JUMP JUMPDEST PUSH32 0x4E6F7420617070726F7665640000000000000000000000000000000000000000 PUSH1 0x0 DUP3 ADD MSTORE POP JUMP JUMPDEST PUSH1 0x0 PUSH2 0x23A4 PUSH1 0xC DUP4 PUSH2 0x1E0D JUMP JUMPDEST SWAP2 POP PUSH2 0x23AF DUP3 PUSH2 0x236E JUMP JUMPDEST PUSH1 0x20 DUP3 ADD SWAP1 POP SWAP2 SWAP1 POP JUMP JUMPDEST PUSH1 0x0 PUSH1 0x20 DUP3 ADD SWAP1 POP DUP2 DUP2 SUB PUSH1 0x0 DUP4 ADD MSTORE PUSH2 0x23D3 DUP2 PUSH2 0x2397 JUMP JUMPDEST SWAP1 POP SWAP2 SWAP1 POP JUMP JUMPDEST PUSH1 0x0 PUSH1 0x40 DUP3 ADD SWAP1 POP PUSH2 0x23EF PUSH1 0x0 DUP4 ADD DUP6 PUSH2 0x1ABE JUMP JUMPDEST PUSH2 0x23FC PUSH1 0x20 DUP4 ADD DUP5 PUSH2 0x18C5 JUMP JUMPDEST SWAP4 SWAP3 POP POP POP JUMP INVALID LOG2 PUSH5 0x6970667358 0x22 SLT KECCAK256 LOG0 0xAC 0xD8 CALLDATALOAD PUSH7 0xB917AB8AD4E1A 0xCA EXP GASPRICE GASLIMIT SWAP16 0xBE 0x24 0xB7 SWAP2 0xEF CALLCODE LT 0xA9 0xB5 CALLDATACOPY CALLER JUMP CALLDATASIZE 0xC6 0xA7 PUSH5 0x736F6C6343 STOP ADDMOD EQ STOP CALLER "},"methodIdentifiers":{"DEFAULT_ADMIN_ROLE()":"a217fddf","OPERATOR_ROLE()":"f5b541a6","SETTLEMENT_PERIOD()":"09e54b5b","approveRedemption(bytes32,uint256,bytes32)":"ea14d9c1","cancelRedemption(bytes32,string)":"47f9797b","getInvestorRequests(address)":"e8676452","getRedemptionRequest(bytes32)":"c13aeda0","getRoleAdmin(bytes32)":"248a9ca3","grantRole(bytes32,address)":"2f2ff15d","hasRole(bytes32,address)":"91d14854","investorRequests(address,uint256)":"a419c5d4","pendingRedemptions(address)":"e50fe9b9","redemptionRequests(bytes32)":"a13a240e","renounceRole(bytes32,address)":"36568abe","requestRedemption(address,uint256)":"65d8480b","revokeRole(bytes32,address)":"d547741f","settleRedemption(bytes32)":"f851e311","supportsInterface(bytes4)":"01ffc9a7"}}}}}