{
  "_format": "hh-sol-artifact-1",
  "contractName": "AssetRegistry",
  "sourceName": "contracts/AssetRegistry.sol",
  "abi": [
    {
      "inputs": [],
      "stateMutability": "nonpayable",
      "type": "constructor"
    },
    {
      "inputs": [],
      "name": "AccessControlBadConfirmation",
      "type": "error"
    },
    {
      "inputs": [
        {
          "internalType": "address",
          "name": "account",
          "type": "address"
        },
        {
          "internalType": "bytes32",
          "name": "neededRole",
          "type": "bytes32"
        }
      ],
      "name": "AccessControlUnauthorizedAccount",
      "type": "error"
    },
    {
      "inputs": [],
      "name": "ReentrancyGuardReentrantCall",
      "type": "error"
    },
    {
      "anonymous": false,
      "inputs": [
        {
          "indexed": true,
          "internalType": "bytes32",
          "name": "fingerprint",
          "type": "bytes32"
        },
        {
          "indexed": true,
          "internalType": "address",
          "name": "owner",
          "type": "address"
        },
        {
          "indexed": false,
          "internalType": "uint256",
          "name": "timestamp",
          "type": "uint256"
        }
      ],
      "name": "AssetRegistered",
      "type": "event"
    },
    {
      "anonymous": false,
      "inputs": [
        {
          "indexed": true,
          "internalType": "bytes32",
          "name": "fingerprint",
          "type": "bytes32"
        },
        {
          "indexed": false,
          "internalType": "address",
          "name": "tokenAddress",
          "type": "address"
        }
      ],
      "name": "AssetTokenized",
      "type": "event"
    },
    {
      "anonymous": false,
      "inputs": [
        {
          "indexed": true,
          "internalType": "bytes32",
          "name": "fingerprint",
          "type": "bytes32"
        }
      ],
      "name": "AssetVerified",
      "type": "event"
    },
    {
      "anonymous": false,
      "inputs": [
        {
          "indexed": true,
          "internalType": "bytes32",
          "name": "role",
          "type": "bytes32"
        },
        {
          "indexed": true,
          "internalType": "bytes32",
          "name": "previousAdminRole",
          "type": "bytes32"
        },
        {
          "indexed": true,
          "internalType": "bytes32",
          "name": "newAdminRole",
          "type": "bytes32"
        }
      ],
      "name": "RoleAdminChanged",
      "type": "event"
    },
    {
      "anonymous": false,
      "inputs": [
        {
          "indexed": true,
          "internalType": "bytes32",
          "name": "role",
          "type": "bytes32"
        },
        {
          "indexed": true,
          "internalType": "address",
          "name": "account",
          "type": "address"
        },
        {
          "indexed": true,
          "internalType": "address",
          "name": "sender",
          "type": "address"
        }
      ],
      "name": "RoleGranted",
      "type": "event"
    },
    {
      "anonymous": false,
      "inputs": [
        {
          "indexed": true,
          "internalType": "bytes32",
          "name": "role",
          "type": "bytes32"
        },
        {
          "indexed": true,
          "internalType": "address",
          "name": "account",
          "type": "address"
        },
        {
          "indexed": true,
          "internalType": "address",
          "name": "sender",
          "type": "address"
        }
      ],
      "name": "RoleRevoked",
      "type": "event"
    },
    {
      "inputs": [],
      "name": "DEFAULT_ADMIN_ROLE",
      "outputs": [
        {
          "internalType": "bytes32",
          "name": "",
          "type": "bytes32"
        }
      ],
      "stateMutability": "view",
      "type": "function"
    },
    {
      "inputs": [],
      "name": "ORACLE_ROLE",
      "outputs": [
        {
          "internalType": "bytes32",
          "name": "",
          "type": "bytes32"
        }
      ],
      "stateMutability": "view",
      "type": "function"
    },
    {
      "inputs": [
        {
          "internalType": "bytes32",
          "name": "fingerprint",
          "type": "bytes32"
        }
      ],
      "name": "getAsset",
      "outputs": [
        {
          "components": [
            {
              "internalType": "bytes32",
              "name": "fingerprint",
              "type": "bytes32"
            },
            {
              "internalType": "bytes32",
              "name": "oracleAttestation",
              "type": "bytes32"
            },
            {
              "internalType": "bytes32",
              "name": "abmOutputHash",
              "type": "bytes32"
            },
            {
              "internalType": "address",
              "name": "owner",
              "type": "address"
            },
            {
              "internalType": "uint256",
              "name": "timestamp",
              "type": "uint256"
            },
            {
              "internalType": "uint256",
              "name": "existenceScore",
              "type": "uint256"
            },
            {
              "internalType": "uint256",
              "name": "ownershipScore",
              "type": "uint256"
            },
            {
              "internalType": "uint256",
              "name": "fraudScore",
              "type": "uint256"
            },
            {
              "internalType": "uint256",
              "name": "riskScore",
              "type": "uint256"
            },
            {
              "internalType": "bool",
              "name": "verified",
              "type": "bool"
            },
            {
              "internalType": "bool",
              "name": "eligible",
              "type": "bool"
            },
            {
              "internalType": "bool",
              "name": "tokenized",
              "type": "bool"
            }
          ],
          "internalType": "struct AssetRegistry.Asset",
          "name": "",
          "type": "tuple"
        }
      ],
      "stateMutability": "view",
      "type": "function"
    },
    {
      "inputs": [
        {
          "internalType": "bytes32",
          "name": "role",
          "type": "bytes32"
        }
      ],
      "name": "getRoleAdmin",
      "outputs": [
        {
          "internalType": "bytes32",
          "name": "",
          "type": "bytes32"
        }
      ],
      "stateMutability": "view",
      "type": "function"
    },
    {
      "inputs": [
        {
          "internalType": "bytes32",
          "name": "fingerprint",
          "type": "bytes32"
        }
      ],
      "name": "getTokenAddress",
      "outputs": [
        {
          "internalType": "address",
          "name": "",
          "type": "address"
        }
      ],
      "stateMutability": "view",
      "type": "function"
    },
    {
      "inputs": [
        {
          "internalType": "bytes32",
          "name": "role",
          "type": "bytes32"
        },
        {
          "internalType": "address",
          "name": "account",
          "type": "address"
        }
      ],
      "name": "grantRole",
      "outputs": [],
      "stateMutability": "nonpayable",
      "type": "function"
    },
    {
      "inputs": [
        {
          "internalType": "bytes32",
          "name": "role",
          "type": "bytes32"
        },
        {
          "internalType": "address",
          "name": "account",
          "type": "address"
        }
      ],
      "name": "hasRole",
      "outputs": [
        {
          "internalType": "bool",
          "name": "",
          "type": "bool"
        }
      ],
      "stateMutability": "view",
      "type": "function"
    },
    {
      "inputs": [
        {
          "internalType": "bytes32",
          "name": "fingerprint",
          "type": "bytes32"
        }
      ],
      "name": "isEligible",
      "outputs": [
        {
          "internalType": "bool",
          "name": "",
          "type": "bool"
        }
      ],
      "stateMutability": "view",
      "type": "function"
    },
    {
      "inputs": [
        {
          "internalType": "bytes32",
          "name": "fingerprint",
          "type": "bytes32"
        },
        {
          "internalType": "address",
          "name": "tokenAddress",
          "type": "address"
        }
      ],
      "name": "markAsTokenized",
      "outputs": [],
      "stateMutability": "nonpayable",
      "type": "function"
    },
    {
      "inputs": [
        {
          "components": [
            {
              "internalType": "bytes32",
              "name": "fingerprint",
              "type": "bytes32"
            },
            {
              "internalType": "bytes32",
              "name": "oracleAttestation",
              "type": "bytes32"
            },
            {
              "internalType": "bytes32",
              "name": "abmOutputHash",
              "type": "bytes32"
            },
            {
              "internalType": "address",
              "name": "owner",
              "type": "address"
            },
            {
              "internalType": "uint256",
              "name": "timestamp",
              "type": "uint256"
            },
            {
              "internalType": "uint256",
              "name": "existenceScore",
              "type": "uint256"
            },
            {
              "internalType": "uint256",
              "name": "ownershipScore",
              "type": "uint256"
            },
            {
              "internalType": "uint256",
              "name": "fraudScore",
              "type": "uint256"
            },
            {
              "internalType": "uint256",
              "name": "riskScore",
              "type": "uint256"
            },
            {
              "internalType": "bool",
              "name": "verified",
              "type": "bool"
            },
            {
              "internalType": "bool",
              "name": "eligible",
              "type": "bool"
            },
            {
              "internalType": "bool",
              "name": "tokenized",
              "type": "bool"
            }
          ],
          "internalType": "struct AssetRegistry.Asset",
          "name": "_asset",
          "type": "tuple"
        }
      ],
      "name": "registerAsset",
      "outputs": [],
      "stateMutability": "nonpayable",
      "type": "function"
    },
    {
      "inputs": [
        {
          "internalType": "bytes32",
          "name": "role",
          "type": "bytes32"
        },
        {
          "internalType": "address",
          "name": "callerConfirmation",
          "type": "address"
        }
      ],
      "name": "renounceRole",
      "outputs": [],
      "stateMutability": "nonpayable",
      "type": "function"
    },
    {
      "inputs": [
        {
          "internalType": "bytes32",
          "name": "role",
          "type": "bytes32"
        },
        {
          "internalType": "address",
          "name": "account",
          "type": "address"
        }
      ],
      "name": "revokeRole",
      "outputs": [],
      "stateMutability": "nonpayable",
      "type": "function"
    },
    {
      "inputs": [
        {
          "internalType": "bytes4",
          "name": "interfaceId",
          "type": "bytes4"
        }
      ],
      "name": "supportsInterface",
      "outputs": [
        {
          "internalType": "bool",
          "name": "",
          "type": "bool"
        }
      ],
      "stateMutability": "view",
      "type": "function"
    },
    {
      "inputs": [
        {
          "internalType": "bytes32",
          "name": "fingerprint",
          "type": "bytes32"
        }
      ],
      "name": "verifyAsset",
      "outputs": [],
      "stateMutability": "nonpayable",
      "type": "function"
    }
  ],
  "bytecode": "0x60806040523480156200001157600080fd5b50600180819055506200002e6000801b336200006860201b60201c565b50620000617f68e79a7bf1e0bc45d0a330c573bc367f9cf464fd326078812f301165fbda4ef1336200006860201b60201c565b50620001dd565b60006200007c83836200016b60201b60201c565b6200016057600160008085815260200190815260200160002060000160008473ffffffffffffffffffffffffffffffffffffffff1673ffffffffffffffffffffffffffffffffffffffff16815260200190815260200160002060006101000a81548160ff021916908315150217905550620000fc620001d560201b60201c565b73ffffffffffffffffffffffffffffffffffffffff168273ffffffffffffffffffffffffffffffffffffffff16847f2f8788117e7eff1d82e926ec794901d17c78024a50270940304540a733656f0d60405160405180910390a46001905062000165565b600090505b92915050565b600080600084815260200190815260200160002060000160008373ffffffffffffffffffffffffffffffffffffffff1673ffffffffffffffffffffffffffffffffffffffff16815260200190815260200160002060009054906101000a900460ff16905092915050565b600033905090565b611a1480620001ed6000396000f3fe608060405234801561001057600080fd5b50600436106100ea5760003560e01c80633c74e0d91161008c578063a217fddf11610066578063a217fddf1461026d578063b12e44101461028b578063d547741f146102bb578063fb4c7bdb146102d7576100ea565b80633c74e0d9146101f15780637813f3f21461022157806391d148541461023d576100ea565b8063248a9ca3116100c8578063248a9ca3146101595780632cc3ce80146101895780632f2ff15d146101b957806336568abe146101d5576100ea565b806301ffc9a7146100ef57806307e2cea51461011f5780631cba53631461013d575b600080fd5b61010960048036038101906101049190610f20565b6102f3565b6040516101169190610f68565b60405180910390f35b61012761036d565b6040516101349190610f9c565b60405180910390f35b61015760048036038101906101529190610fdc565b610391565b005b610173600480360381019061016e9190611036565b610552565b6040516101809190610f9c565b60405180910390f35b6101a3600480360381019061019e9190611036565b610571565b6040516101b091906111d1565b60405180910390f35b6101d360048036038101906101ce9190611219565b6106f1565b005b6101ef60048036038101906101ea9190611219565b610713565b005b61020b60048036038101906102069190611036565b61078e565b6040516102189190610f68565b60405180910390f35b61023b60048036038101906102369190611219565b6107f5565b005b61025760048036038101906102529190611219565b61097f565b6040516102649190610f68565b60405180910390f35b6102756109e9565b6040516102829190610f9c565b60405180910390f35b6102a560048036038101906102a09190611036565b6109f0565b6040516102b29190611268565b60405180910390f35b6102d560048036038101906102d09190611219565b610a2d565b005b6102f160048036038101906102ec9190611036565b610a4f565b005b60007f7965db0b000000000000000000000000000000000000000000000000000000007bffffffffffffffffffffffffffffffffffffffffffffffffffffffff1916827bffffffffffffffffffffffffffffffffffffffffffffffffffffffff19161480610366575061036582610b34565b5b9050919050565b7f68e79a7bf1e0bc45d0a330c573bc367f9cf464fd326078812f301165fbda4ef181565b7f68e79a7bf1e0bc45d0a330c573bc367f9cf464fd326078812f301165fbda4ef16103bb81610b9e565b6103c3610bb2565b6000801b82600001350361040c576040517f08c379a0000000000000000000000000000000000000000000000000000000008152600401610403906112e0565b60405180910390fd5b6000801b6002600084600001358152602001908152602001600020600001541461046b576040517f08c379a00000000000000000000000000000000000000000000000000000000081526004016104629061134c565b60405180910390fd5b816002600084600001358152602001908152602001600020818161048f9190611836565b9050508160600160208101906104a59190611844565b73ffffffffffffffffffffffffffffffffffffffff1682600001357f183dd7ee8d3db71edaccba8d77d2f4ba0c9ca60c557f9fd881798fcf62719d5f84608001356040516104f39190611880565b60405180910390a38161012001602081019061050f91906118b0565b156105465781600001357f6a2e6b77dde91b70f9f741510d82ff84bb1d6f96d078f916cbafa293f21f6fa860405160405180910390a25b61054e610bf8565b5050565b6000806000838152602001908152602001600020600101549050919050565b610579610e3d565b6000801b6002600084815260200190815260200160002060000154036105d4576040517f08c379a00000000000000000000000000000000000000000000000000000000081526004016105cb90611929565b60405180910390fd5b60026000838152602001908152602001600020604051806101800160405290816000820154815260200160018201548152602001600282015481526020016003820160009054906101000a900473ffffffffffffffffffffffffffffffffffffffff1673ffffffffffffffffffffffffffffffffffffffff1673ffffffffffffffffffffffffffffffffffffffff16815260200160048201548152602001600582015481526020016006820154815260200160078201548152602001600882015481526020016009820160009054906101000a900460ff161515151581526020016009820160019054906101000a900460ff161515151581526020016009820160029054906101000a900460ff1615151515815250509050919050565b6106fa82610552565b61070381610b9e565b61070d8383610c01565b50505050565b61071b610cf2565b73ffffffffffffffffffffffffffffffffffffffff168173ffffffffffffffffffffffffffffffffffffffff161461077f576040517f6697b23200000000000000000000000000000000000000000000000000000000815260040160405180910390fd5b6107898282610cfa565b505050565b6000806002600084815260200190815260200160002090508060090160009054906101000a900460ff1680156107d257508060090160019054906101000a900460ff165b80156107ed57508060090160029054906101000a900460ff16155b915050919050565b6000801b61080281610b9e565b6000801b60026000858152602001908152602001600020600001540361085d576040517f08c379a000000000000000000000000000000000000000000000000000000000815260040161085490611929565b60405180910390fd5b6002600084815260200190815260200160002060090160029054906101000a900460ff16156108c1576040517f08c379a00000000000000000000000000000000000000000000000000000000081526004016108b890611995565b60405180910390fd5b60016002600085815260200190815260200160002060090160026101000a81548160ff021916908315150217905550816003600085815260200190815260200160002060006101000a81548173ffffffffffffffffffffffffffffffffffffffff021916908373ffffffffffffffffffffffffffffffffffffffff160217905550827f909d9ac3280e79c89bc3120f7479ab8831cb552a2ccc054ef34a0e1e06912a77836040516109729190611268565b60405180910390a2505050565b600080600084815260200190815260200160002060000160008373ffffffffffffffffffffffffffffffffffffffff1673ffffffffffffffffffffffffffffffffffffffff16815260200190815260200160002060009054906101000a900460ff16905092915050565b6000801b81565b60006003600083815260200190815260200160002060009054906101000a900473ffffffffffffffffffffffffffffffffffffffff169050919050565b610a3682610552565b610a3f81610b9e565b610a498383610cfa565b50505050565b7f68e79a7bf1e0bc45d0a330c573bc367f9cf464fd326078812f301165fbda4ef1610a7981610b9e565b6000801b600260008481526020019081526020016000206000015403610ad4576040517f08c379a0000000000000000000000000000000000000000000000000000000008152600401610acb90611929565b60405180910390fd5b60016002600084815260200190815260200160002060090160006101000a81548160ff021916908315150217905550817f6a2e6b77dde91b70f9f741510d82ff84bb1d6f96d078f916cbafa293f21f6fa860405160405180910390a25050565b60007f01ffc9a7000000000000000000000000000000000000000000000000000000007bffffffffffffffffffffffffffffffffffffffffffffffffffffffff1916827bffffffffffffffffffffffffffffffffffffffffffffffffffffffff1916149050919050565b610baf81610baa610cf2565b610dec565b50565b600260015403610bee576040517f3ee5aeb500000000000000000000000000000000000000000000000000000000815260040160405180910390fd5b6002600181905550565b60018081905550565b6000610c0d838361097f565b610ce757600160008085815260200190815260200160002060000160008473ffffffffffffffffffffffffffffffffffffffff1673ffffffffffffffffffffffffffffffffffffffff16815260200190815260200160002060006101000a81548160ff021916908315150217905550610c84610cf2565b73ffffffffffffffffffffffffffffffffffffffff168273ffffffffffffffffffffffffffffffffffffffff16847f2f8788117e7eff1d82e926ec794901d17c78024a50270940304540a733656f0d60405160405180910390a460019050610cec565b600090505b92915050565b600033905090565b6000610d06838361097f565b15610de157600080600085815260200190815260200160002060000160008473ffffffffffffffffffffffffffffffffffffffff1673ffffffffffffffffffffffffffffffffffffffff16815260200190815260200160002060006101000a81548160ff021916908315150217905550610d7e610cf2565b73ffffffffffffffffffffffffffffffffffffffff168273ffffffffffffffffffffffffffffffffffffffff16847ff6391f5c32d9c69d2a47ea670b442974b53935d1edc7fd64eb21e047a839171b60405160405180910390a460019050610de6565b600090505b92915050565b610df6828261097f565b610e395780826040517fe2517d3f000000000000000000000000000000000000000000000000000000008152600401610e309291906119b5565b60405180910390fd5b5050565b604051806101800160405280600080191681526020016000801916815260200160008019168152602001600073ffffffffffffffffffffffffffffffffffffffff16815260200160008152602001600081526020016000815260200160008152602001600081526020016000151581526020016000151581526020016000151581525090565b600080fd5b60007fffffffff0000000000000000000000000000000000000000000000000000000082169050919050565b610efd81610ec8565b8114610f0857600080fd5b50565b600081359050610f1a81610ef4565b92915050565b600060208284031215610f3657610f35610ec3565b5b6000610f4484828501610f0b565b91505092915050565b60008115159050919050565b610f6281610f4d565b82525050565b6000602082019050610f7d6000830184610f59565b92915050565b6000819050919050565b610f9681610f83565b82525050565b6000602082019050610fb16000830184610f8d565b92915050565b600080fd5b60006101808284031215610fd357610fd2610fb7565b5b81905092915050565b60006101808284031215610ff357610ff2610ec3565b5b600061100184828501610fbc565b91505092915050565b61101381610f83565b811461101e57600080fd5b50565b6000813590506110308161100a565b92915050565b60006020828403121561104c5761104b610ec3565b5b600061105a84828501611021565b91505092915050565b61106c81610f83565b82525050565b600073ffffffffffffffffffffffffffffffffffffffff82169050919050565b600061109d82611072565b9050919050565b6110ad81611092565b82525050565b6000819050919050565b6110c6816110b3565b82525050565b6110d581610f4d565b82525050565b610180820160008201516110f26000850182611063565b5060208201516111056020850182611063565b5060408201516111186040850182611063565b50606082015161112b60608501826110a4565b50608082015161113e60808501826110bd565b5060a082015161115160a08501826110bd565b5060c082015161116460c08501826110bd565b5060e082015161117760e08501826110bd565b5061010082015161118c6101008501826110bd565b506101208201516111a16101208501826110cc565b506101408201516111b66101408501826110cc565b506101608201516111cb6101608501826110cc565b50505050565b6000610180820190506111e760008301846110db565b92915050565b6111f681611092565b811461120157600080fd5b50565b600081359050611213816111ed565b92915050565b600080604083850312156112305761122f610ec3565b5b600061123e85828601611021565b925050602061124f85828601611204565b9150509250929050565b61126281611092565b82525050565b600060208201905061127d6000830184611259565b92915050565b600082825260208201905092915050565b7f496e76616c69642066696e6765727072696e7400000000000000000000000000600082015250565b60006112ca601383611283565b91506112d582611294565b602082019050919050565b600060208201905081810360008301526112f9816112bd565b9050919050565b7f417373657420616c726561647920657869737473000000000000000000000000600082015250565b6000611336601483611283565b915061134182611300565b602082019050919050565b6000602082019050818103600083015261136581611329565b9050919050565b600081356113798161100a565b80915050919050565b60008160001b9050919050565b60007fffffffffffffffffffffffffffffffffffffffffffffffffffffffffffffffff6113bb84611382565b9350801983169250808416831791505092915050565b60006113dc82610f83565b9050919050565b60008160001c9050919050565b60006113fb826113e3565b9050919050565b61140b826113d1565b61141e611417826113f0565b835461138f565b8255505050565b60008135611432816111ed565b80915050919050565b600073ffffffffffffffffffffffffffffffffffffffff61145b84611382565b9350801983169250808416831791505092915050565b6000819050919050565b600061149661149161148c84611072565b611471565b611072565b9050919050565b60006114a88261147b565b9050919050565b60006114ba8261149d565b9050919050565b6000819050919050565b6114d4826114af565b6114e76114e0826114c1565b835461143b565b8255505050565b6114f7816110b3565b811461150257600080fd5b50565b60008135611512816114ee565b80915050919050565b600061153661153161152c846110b3565b611471565b6110b3565b9050919050565b6000819050919050565b6115508261151b565b61156361155c8261153d565b835461138f565b8255505050565b61157381610f4d565b811461157e57600080fd5b50565b6000813561158e8161156a565b80915050919050565b600060ff6115a484611382565b9350801983169250808416831791505092915050565b60006115c582610f4d565b9050919050565b6000819050919050565b6115df826115ba565b6115f26115eb826115cc565b8354611597565b8255505050565b60008160081b9050919050565b600061ff00611614846115f9565b9350801983169250808416831791505092915050565b611633826115ba565b61164661163f826115cc565b8354611606565b8255505050565b60008160101b9050919050565b600062ff00006116698461164d565b9350801983169250808416831791505092915050565b611688826115ba565b61169b611694826115cc565b835461165a565b8255505050565b6000810160008301806116b48161136c565b90506116c08184611402565b5050506001810160208301806116d58161136c565b90506116e18184611402565b5050506002810160408301806116f68161136c565b90506117028184611402565b50505060038101606083018061171781611425565b905061172381846114cb565b50505060048101608083018061173881611505565b90506117448184611547565b5050506005810160a083018061175981611505565b90506117658184611547565b5050506006810160c083018061177a81611505565b90506117868184611547565b5050506007810160e083018061179b81611505565b90506117a78184611547565b505050600881016101008301806117bd81611505565b90506117c98184611547565b505050600981016101208301806117df81611581565b90506117eb81846115d6565b5050506009810161014083018061180181611581565b905061180d818461162a565b5050506009810161016083018061182381611581565b905061182f818461167f565b5050505050565b61184082826116a2565b5050565b60006020828403121561185a57611859610ec3565b5b600061186884828501611204565b91505092915050565b61187a816110b3565b82525050565b60006020820190506118956000830184611871565b92915050565b6000813590506118aa8161156a565b92915050565b6000602082840312156118c6576118c5610ec3565b5b60006118d48482850161189b565b91505092915050565b7f4173736574206e6f7420666f756e640000000000000000000000000000000000600082015250565b6000611913600f83611283565b915061191e826118dd565b602082019050919050565b6000602082019050818103600083015261194281611906565b9050919050565b7f416c726561647920746f6b656e697a6564000000000000000000000000000000600082015250565b600061197f601183611283565b915061198a82611949565b602082019050919050565b600060208201905081810360008301526119ae81611972565b9050919050565b60006040820190506119ca6000830185611259565b6119d76020830184610f8d565b939250505056fea26469706673582212200d02efe795295d60507a83e456937dda85d769faf9b65b85d72960f016c1dbf864736f6c63430008140033",
  "linkReferences": {},
  "deployedLinkReferences": {}
}